{
  "contractName": "Admin",
  "abi": [
    {
      "inputs": [],
      "stateMutability": "nonpayable",
      "type": "constructor"
    },
    {
      "inputs": [],
      "name": "DAY",
      "outputs": [
        {
          "internalType": "uint256",
          "name": "",
          "type": "uint256"
        }
      ],
      "stateMutability": "view",
      "type": "function"
    },
    {
      "inputs": [],
      "name": "getAdmin",
      "outputs": [
        {
          "internalType": "address[10]",
          "name": "_admin",
          "type": "address[10]"
        }
      ],
      "stateMutability": "view",
      "type": "function"
    },
    {
      "inputs": [
        {
          "internalType": "uint256",
          "name": "_voteIndex",
          "type": "uint256"
        }
      ],
      "name": "resolveVote",
      "outputs": [],
      "stateMutability": "nonpayable",
      "type": "function"
    },
    {
      "inputs": [
        {
          "internalType": "address",
          "name": "_targetAddress",
          "type": "address"
        },
        {
          "internalType": "uint256",
          "name": "_target",
          "type": "uint256"
        },
        {
          "internalType": "uint256",
          "name": "_votingPeriod",
          "type": "uint256"
        }
      ],
      "name": "addVote",
      "outputs": [
        {
          "internalType": "uint256",
          "name": "",
          "type": "uint256"
        }
      ],
      "stateMutability": "nonpayable",
      "type": "function"
    },
    {
      "inputs": [],
      "name": "isAdmin",
      "outputs": [
        {
          "internalType": "bool",
          "name": "",
          "type": "bool"
        }
      ],
      "stateMutability": "view",
      "type": "function"
    }
  ],
  "bytecode": "0x60806040526201518060005534801561001757600080fd5b503360016000600a811061002e5761002d610082565b5b0160006101000a81548173ffffffffffffffffffffffffffffffffffffffff021916908373ffffffffffffffffffffffffffffffffffffffff160217905550600060688190555060006069819055506100b1565b7f4e487b7100000000000000000000000000000000000000000000000000000000600052603260045260246000fd5b611399806100c06000396000f3fe608060405234801561001057600080fd5b50600436106100575760003560e01c806327cfe8561461005c57806330f4ccac1461007a5780633c59958b146100965780636e9960c3146100c6578063b6db75a0146100e4575b600080fd5b610064610102565b6040516100719190610cf1565b60405180910390f35b610094600480360381019061008f9190610d3d565b610108565b005b6100b060048036038101906100ab9190610dc8565b6107c8565b6040516100bd9190610cf1565b60405180910390f35b6100ce610a18565b6040516100db9190610ec6565b60405180910390f35b6100ec610a99565b6040516100f99190610efd565b60405180910390f35b60005481565b42600d82600a811061011d5761011c610f18565b5b60090201600801541115610166576040517f08c379a000000000000000000000000000000000000000000000000000000000815260040161015d90610fa4565b60405180910390fd5b6000600d82600a811061017c5761017b610f18565b5b6009020160080154036101c4576040517f08c379a00000000000000000000000000000000000000000000000000000000081526004016101bb90611010565b60405180910390fd5b600d81600a81106101d8576101d7610f18565b5b6009020160060154600d82600a81106101f4576101f3610f18565b5b60090201600501541115610594576000600d82600a811061021857610217610f18565b5b6009020160030154036102c057600d81600a811061023957610238610f18565b5b6009020160010160009054906101000a900473ffffffffffffffffffffffffffffffffffffffff16600161026b610b38565b600a811061027c5761027b610f18565b5b0160006101000a81548173ffffffffffffffffffffffffffffffffffffffff021916908373ffffffffffffffffffffffffffffffffffffffff160217905550610593565b6001600d82600a81106102d6576102d5610f18565b5b6009020160030154036104015760005b600a8110156103fb57600d82600a811061030357610302610f18565b5b6009020160010160009054906101000a900473ffffffffffffffffffffffffffffffffffffffff1673ffffffffffffffffffffffffffffffffffffffff16600182600a811061035557610354610f18565b5b0160009054906101000a900473ffffffffffffffffffffffffffffffffffffffff1673ffffffffffffffffffffffffffffffffffffffff16036103e8576000600182600a81106103a8576103a7610f18565b5b0160006101000a81548173ffffffffffffffffffffffffffffffffffffffff021916908373ffffffffffffffffffffffffffffffffffffffff1602179055505b80806103f39061105f565b9150506102e6565b50610592565b6002600d82600a811061041757610416610f18565b5b6009020160030154036104a557600d81600a811061043857610437610f18565b5b6009020160010160009054906101000a900473ffffffffffffffffffffffffffffffffffffffff16600b60006101000a81548173ffffffffffffffffffffffffffffffffffffffff021916908373ffffffffffffffffffffffffffffffffffffffff160217905550610591565b6003600d82600a81106104bb576104ba610f18565b5b60090201600301540361054957600d81600a81106104dc576104db610f18565b5b6009020160010160009054906101000a900473ffffffffffffffffffffffffffffffffffffffff16600c60006101000a81548173ffffffffffffffffffffffffffffffffffffffff021916908373ffffffffffffffffffffffffffffffffffffffff160217905550610590565b6004600d82600a811061055f5761055e610f18565b5b60090201600301540361058f57600d81600a81106105805761057f610f18565b5b60090201600201546068819055505b5b5b5b5b5b6000600d82600a81106105aa576105a9610f18565b5b60090201600001549050806067600083815260200190815260200160002060000181905550600d82600a81106105e3576105e2610f18565b5b6009020160010160009054906101000a900473ffffffffffffffffffffffffffffffffffffffff166067600083815260200190815260200160002060010160006101000a81548173ffffffffffffffffffffffffffffffffffffffff021916908373ffffffffffffffffffffffffffffffffffffffff160217905550600d82600a811061067357610672610f18565b5b60090201600301546067600083815260200190815260200160002060030181905550600d82600a81106106a9576106a8610f18565b5b60090201600501546067600083815260200190815260200160002060050181905550600d82600a81106106df576106de610f18565b5b60090201600601546067600083815260200190815260200160002060060181905550600d82600a811061071557610714610f18565b5b60090201600701546067600083815260200190815260200160002060070181905550600d82600a811061074b5761074a610f18565b5b60090201600801546067600083815260200190815260200160002060080181905550600d82600a811061078157610780610f18565b5b600902016002015460676000838152602001908152602001600020600201819055506000600d83600a81106107b9576107b8610f18565b5b60090201600801819055505050565b60006107d2610a99565b610811576040517f08c379a0000000000000000000000000000000000000000000000000000000008152600401610808906110f3565b60405180910390fd5b606954821015610856576040517f08c379a000000000000000000000000000000000000000000000000000000000815260040161084d9061115f565b60405180910390fd5b6000610860610bf6565b90507fffffffffffffffffffffffffffffffffffffffffffffffffffffffffffffffff81036108c4576040517f08c379a00000000000000000000000000000000000000000000000000000000081526004016108bb906111cb565b60405180910390fd5b600042338787876040516020016108df959493929190611254565b6040516020818303038152906040528051906020012060001c905080600d83600a811061090f5761090e610f18565b5b600902016000018190555085600d83600a811061092f5761092e610f18565b5b6009020160010160006101000a81548173ffffffffffffffffffffffffffffffffffffffff021916908373ffffffffffffffffffffffffffffffffffffffff16021790555084600d83600a811061098957610988610f18565b5b600902016003018190555083600d83600a81106109a9576109a8610f18565b5b600902016002018190555042600d83600a81106109c9576109c8610f18565b5b6009020160070181905550600054846109e291906112b3565b426109ed919061130d565b600d83600a8110610a0157610a00610f18565b5b600902016008018190555080925050509392505050565b610a20610cb5565b6001600a806020026040519081016040528092919082600a8015610a8f576020028201915b8160009054906101000a900473ffffffffffffffffffffffffffffffffffffffff1673ffffffffffffffffffffffffffffffffffffffff1681526020019060010190808311610a45575b5050505050905090565b600080600090505b600a811015610b2f573373ffffffffffffffffffffffffffffffffffffffff16600182600a8110610ad557610ad4610f18565b5b0160009054906101000a900473ffffffffffffffffffffffffffffffffffffffff1673ffffffffffffffffffffffffffffffffffffffff1603610b1c576001915050610b35565b8080610b279061105f565b915050610aa1565b50600090505b90565b600080600090505b600a811015610bce57600073ffffffffffffffffffffffffffffffffffffffff16600182600a8110610b7557610b74610f18565b5b0160009054906101000a900473ffffffffffffffffffffffffffffffffffffffff1673ffffffffffffffffffffffffffffffffffffffff1603610bbb5780915050610bf3565b8080610bc69061105f565b915050610b40565b507fffffffffffffffffffffffffffffffffffffffffffffffffffffffffffffffff90505b90565b600080600090505b600a811015610c8d5742600d82600a8110610c1c57610c1b610f18565b5b600902016008015411610c7a576000600d82600a8110610c3f57610c3e610f18565b5b600902016008015414610c7157610c70600d82600a8110610c6357610c62610f18565b5b6009020160000154610108565b5b80915050610cb2565b8080610c859061105f565b915050610bfe565b507fffffffffffffffffffffffffffffffffffffffffffffffffffffffffffffffff90505b90565b604051806101400160405280600a90602082028036833780820191505090505090565b6000819050919050565b610ceb81610cd8565b82525050565b6000602082019050610d066000830184610ce2565b92915050565b600080fd5b610d1a81610cd8565b8114610d2557600080fd5b50565b600081359050610d3781610d11565b92915050565b600060208284031215610d5357610d52610d0c565b5b6000610d6184828501610d28565b91505092915050565b600073ffffffffffffffffffffffffffffffffffffffff82169050919050565b6000610d9582610d6a565b9050919050565b610da581610d8a565b8114610db057600080fd5b50565b600081359050610dc281610d9c565b92915050565b600080600060608486031215610de157610de0610d0c565b5b6000610def86828701610db3565b9350506020610e0086828701610d28565b9250506040610e1186828701610d28565b9150509250925092565b6000600a9050919050565b600081905092915050565b6000819050919050565b610e4481610d8a565b82525050565b6000610e568383610e3b565b60208301905092915050565b6000602082019050919050565b610e7881610e1b565b610e828184610e26565b9250610e8d82610e31565b8060005b83811015610ebe578151610ea58782610e4a565b9650610eb083610e62565b925050600181019050610e91565b505050505050565b600061014082019050610edc6000830184610e6f565b92915050565b60008115159050919050565b610ef781610ee2565b82525050565b6000602082019050610f126000830184610eee565b92915050565b7f4e487b7100000000000000000000000000000000000000000000000000000000600052603260045260246000fd5b600082825260208201905092915050565b7f566f7465206973206e6f7420656e646564000000000000000000000000000000600082015250565b6000610f8e601183610f47565b9150610f9982610f58565b602082019050919050565b60006020820190508181036000830152610fbd81610f81565b9050919050565b7f566f7465206973206e6f7420696e697469616c697a6564000000000000000000600082015250565b6000610ffa601783610f47565b915061100582610fc4565b602082019050919050565b6000602082019050818103600083015261102981610fed565b9050919050565b7f4e487b7100000000000000000000000000000000000000000000000000000000600052601160045260246000fd5b600061106a82610cd8565b91507fffffffffffffffffffffffffffffffffffffffffffffffffffffffffffffffff820361109c5761109b611030565b5b600182019050919050565b7f4f6e6c792061646d696e2063616e2061646420766f7465000000000000000000600082015250565b60006110dd601783610f47565b91506110e8826110a7565b602082019050919050565b6000602082019050818103600083015261110c816110d0565b9050919050565b7f566f74696e6720706572696f6420697320746f6f2073686f7274000000000000600082015250565b6000611149601a83610f47565b915061115482611113565b602082019050919050565b600060208201905081810360008301526111788161113c565b9050919050565b7f4e6f206672656520766f746520696e6465780000000000000000000000000000600082015250565b60006111b5601283610f47565b91506111c08261117f565b602082019050919050565b600060208201905081810360008301526111e4816111a8565b9050919050565b6000819050919050565b61120661120182610cd8565b6111eb565b82525050565b60008160601b9050919050565b60006112248261120c565b9050919050565b600061123682611219565b9050919050565b61124e61124982610d8a565b61122b565b82525050565b600061126082886111f5565b602082019150611270828761123d565b601482019150611280828661123d565b60148201915061129082856111f5565b6020820191506112a082846111f5565b6020820191508190509695505050505050565b60006112be82610cd8565b91506112c983610cd8565b9250817fffffffffffffffffffffffffffffffffffffffffffffffffffffffffffffffff048311821515161561130257611301611030565b5b828202905092915050565b600061131882610cd8565b915061132383610cd8565b9250827fffffffffffffffffffffffffffffffffffffffffffffffffffffffffffffffff0382111561135857611357611030565b5b82820190509291505056fea264697066735822122090e156487f1a10e80c48be88fceb06e0fce070b634e79d275b9504ce48fc28e064736f6c634300080e0033",
  "immutableReferences": {},
  "source": "pragma solidity ^0.8.14;\n\ncontract Admin{\n    struct Vote {\n        uint id;\n        address targetAddress;\n        uint votingPeriod;\n        uint target;\n        mapping(address => bool) voters;\n        uint NumberOfApprovals;\n        uint NumberOfDisapprovals;\n        uint startDate;\n        uint endDate;\n    }\n    // Date constants   \n    uint public DAY = 86400;\n    // Main properties of the contract\n    address[10] admin;\n    address libraryAddress;\n    address treasuryAddress;\n    Vote[10] votes;\n    mapping(uint => Vote) votesArchive;\n    uint votePeriod;\n    uint minVotePeriod;\n\n    constructor() {\n        admin[0] = msg.sender;\n        votePeriod = 0;\n        minVotePeriod = 0;\n    }\n\n    function getAdmin() public view returns(address[10] memory _admin) {\n        return admin;\n    }\n\n    // check if there is avaliable place for new admin\n    // returns index for the new admin in the array\n    // else returns -1\n    function getFreeAdminIndex() private view returns(int) {\n        for (uint index = 0; index < admin.length; index++) {\n            if (admin[index] == address(0)) {\n                return int(index);\n            }\n        }\n        return -1;\n    }\n\n    // check if there is available place for new vote\n    // returns index for the new vote it the array\n    // else returns -1\n    function getFreeVoteIndex() private returns(int) {\n        for (uint index = 0; index < votes.length; index++) {\n            // check for expired votes\n            if (votes[index].endDate <= block.timestamp) {\n                // check if vote is not resolved then resolve it\n                if (votes[index].endDate != 0) {\n                    resolveVote(votes[index].id);\n                }\n                return int(index);\n            }\n        }\n        return -1;\n    }\n\n    // resolve vote if ended\n    // vote ends when endDate is smaller than current block timestamp\n    function resolveVote(uint _voteIndex) public {\n        require(votes[_voteIndex].endDate <= block.timestamp, \"Vote is not ended\");\n        require(votes[_voteIndex].endDate != 0, \"Vote is not initialized\");\n        if (votes[_voteIndex].NumberOfApprovals > votes[_voteIndex].NumberOfDisapprovals) {\n            // approve vote\n            if (votes[_voteIndex].target == 0) {\n                // add admin\n                admin[(uint) (getFreeAdminIndex())] = votes[_voteIndex].targetAddress;\n            } else if (votes[_voteIndex].target == 1) {\n                // remove admin\n                for (uint index = 0; index < admin.length; index++) {\n                    if (admin[index] == votes[_voteIndex].targetAddress) {\n                        admin[index] = address(0);\n                    }\n                }\n            } else if (votes[_voteIndex].target == 2) {\n                // change library address\n                libraryAddress = votes[_voteIndex].targetAddress;\n            } else if (votes[_voteIndex].target == 3) {\n                // change treasury address\n                treasuryAddress = votes[_voteIndex].targetAddress;\n            } else if (votes[_voteIndex].target == 4) {\n                // change vote period\n                votePeriod = votes[_voteIndex].votingPeriod;\n            }\n            \n        }\n        // move vote to archive (actually making a copy, without the voters to not make this call too expensive)\n        uint voteId = votes[_voteIndex].id;\n        votesArchive[voteId].id = voteId;\n        votesArchive[voteId].targetAddress = votes[_voteIndex].targetAddress;\n        votesArchive[voteId].target = votes[_voteIndex].target;\n        votesArchive[voteId].NumberOfApprovals = votes[_voteIndex].NumberOfApprovals;\n        votesArchive[voteId].NumberOfDisapprovals = votes[_voteIndex].NumberOfDisapprovals;\n        votesArchive[voteId].startDate = votes[_voteIndex].startDate;\n        votesArchive[voteId].endDate = votes[_voteIndex].endDate;  \n        votesArchive[voteId].votingPeriod = votes[_voteIndex].votingPeriod;    \n  \n        // mark the vote in the array as ended so that it will be replaced in the future\n        votes[_voteIndex].endDate = 0;   \n    }\n\n\n    // add new vote (only admin can do this)\n    // returns vote id\n    function addVote(address _targetAddress, uint _target, uint _votingPeriod) public returns(uint) {\n        require(isAdmin(), \"Only admin can add vote\");\n        require(_votingPeriod >= minVotePeriod, \"Voting period is too short\");\n        int freeVoteIndex = getFreeVoteIndex();\n        require(freeVoteIndex != -1, \"No free vote index\");\n        uint voteId = uint(keccak256(abi.encodePacked(block.timestamp, msg.sender, _targetAddress, _target, _votingPeriod)));\n        votes[(uint) (freeVoteIndex)].id = voteId;\n        votes[(uint) (freeVoteIndex)].targetAddress = _targetAddress;\n        votes[(uint) (freeVoteIndex)].target = _target;\n        votes[(uint) (freeVoteIndex)].votingPeriod = _votingPeriod;\n        votes[(uint) (freeVoteIndex)].startDate = block.timestamp;\n        votes[(uint) (freeVoteIndex)].endDate = block.timestamp + _votingPeriod * DAY;\n        return voteId;\n    }\n\n    // checks if caller is admin\n    function isAdmin() public view returns(bool) {\n        for (uint index = 0; index < admin.length; index++) {\n            if (admin[index] == msg.sender) {\n                return true;\n            }\n        }\n        return false;\n    }\n}",
  "sourcePath": "/Users/ashraf.beshtawi/Desktop/Andromeda/contracts/Admin.sol",
  "compiler": {
    "name": "solc",
    "version": "0.8.14+commit.80d49f37.Emscripten.clang"
  },
  "schemaVersion": "3.4.7",
  "updatedAt": "2022-08-01T18:35:12.967Z",
  "devdoc": {
    "kind": "dev",
    "methods": {},
    "version": 1
  },
  "userdoc": {
    "kind": "user",
    "methods": {},
    "version": 1
  }
}