{
  "contractName": "Admin",
  "abi": [
    {
      "inputs": [
        {
          "internalType": "uint256",
          "name": "_minVotingPeriod",
          "type": "uint256"
        },
        {
          "internalType": "uint256",
          "name": "_minStableBalancePeriod",
          "type": "uint256"
        }
      ],
      "stateMutability": "nonpayable",
      "type": "constructor"
    },
    {
      "anonymous": false,
      "inputs": [
        {
          "indexed": false,
          "internalType": "uint256",
          "name": "index",
          "type": "uint256"
        }
      ],
      "name": "VoteCreated",
      "type": "event"
    },
    {
      "anonymous": false,
      "inputs": [
        {
          "indexed": false,
          "internalType": "address",
          "name": "voter",
          "type": "address"
        },
        {
          "indexed": false,
          "internalType": "uint256",
          "name": "vote",
          "type": "uint256"
        }
      ],
      "name": "Voted",
      "type": "event"
    },
    {
      "inputs": [],
      "name": "DAY",
      "outputs": [
        {
          "internalType": "uint256",
          "name": "",
          "type": "uint256"
        }
      ],
      "stateMutability": "view",
      "type": "function"
    },
    {
      "inputs": [],
      "name": "libraryAddress",
      "outputs": [
        {
          "internalType": "address",
          "name": "",
          "type": "address"
        }
      ],
      "stateMutability": "view",
      "type": "function"
    },
    {
      "inputs": [],
      "name": "minStableBalancePeriod",
      "outputs": [
        {
          "internalType": "uint256",
          "name": "",
          "type": "uint256"
        }
      ],
      "stateMutability": "view",
      "type": "function"
    },
    {
      "inputs": [],
      "name": "minVotePeriod",
      "outputs": [
        {
          "internalType": "uint256",
          "name": "",
          "type": "uint256"
        }
      ],
      "stateMutability": "view",
      "type": "function"
    },
    {
      "inputs": [],
      "name": "treasuryAddress",
      "outputs": [
        {
          "internalType": "address",
          "name": "",
          "type": "address"
        }
      ],
      "stateMutability": "view",
      "type": "function"
    },
    {
      "inputs": [],
      "name": "votePeriod",
      "outputs": [
        {
          "internalType": "uint256",
          "name": "",
          "type": "uint256"
        }
      ],
      "stateMutability": "view",
      "type": "function"
    },
    {
      "inputs": [
        {
          "internalType": "uint256",
          "name": "",
          "type": "uint256"
        }
      ],
      "name": "votes",
      "outputs": [
        {
          "internalType": "uint256",
          "name": "id",
          "type": "uint256"
        },
        {
          "internalType": "address",
          "name": "targetAddress",
          "type": "address"
        },
        {
          "internalType": "uint256",
          "name": "votingPeriod",
          "type": "uint256"
        },
        {
          "internalType": "uint256",
          "name": "target",
          "type": "uint256"
        },
        {
          "internalType": "uint256",
          "name": "NumberOfApprovals",
          "type": "uint256"
        },
        {
          "internalType": "uint256",
          "name": "NumberOfDisapprovals",
          "type": "uint256"
        },
        {
          "internalType": "uint256",
          "name": "startDate",
          "type": "uint256"
        },
        {
          "internalType": "uint256",
          "name": "endDate",
          "type": "uint256"
        }
      ],
      "stateMutability": "view",
      "type": "function"
    },
    {
      "inputs": [
        {
          "internalType": "uint256",
          "name": "",
          "type": "uint256"
        }
      ],
      "name": "votesArchive",
      "outputs": [
        {
          "internalType": "uint256",
          "name": "id",
          "type": "uint256"
        },
        {
          "internalType": "address",
          "name": "targetAddress",
          "type": "address"
        },
        {
          "internalType": "uint256",
          "name": "votingPeriod",
          "type": "uint256"
        },
        {
          "internalType": "uint256",
          "name": "target",
          "type": "uint256"
        },
        {
          "internalType": "uint256",
          "name": "NumberOfApprovals",
          "type": "uint256"
        },
        {
          "internalType": "uint256",
          "name": "NumberOfDisapprovals",
          "type": "uint256"
        },
        {
          "internalType": "uint256",
          "name": "startDate",
          "type": "uint256"
        },
        {
          "internalType": "uint256",
          "name": "endDate",
          "type": "uint256"
        }
      ],
      "stateMutability": "view",
      "type": "function"
    },
    {
      "inputs": [
        {
          "internalType": "uint256",
          "name": "_voteIndex",
          "type": "uint256"
        },
        {
          "internalType": "uint256",
          "name": "_vote",
          "type": "uint256"
        }
      ],
      "name": "vote",
      "outputs": [],
      "stateMutability": "nonpayable",
      "type": "function"
    },
    {
      "inputs": [],
      "name": "getAdmin",
      "outputs": [
        {
          "internalType": "address[10]",
          "name": "_admin",
          "type": "address[10]"
        }
      ],
      "stateMutability": "view",
      "type": "function"
    },
    {
      "inputs": [
        {
          "internalType": "uint256",
          "name": "_voteIndex",
          "type": "uint256"
        }
      ],
      "name": "resolveVote",
      "outputs": [],
      "stateMutability": "nonpayable",
      "type": "function"
    },
    {
      "inputs": [
        {
          "internalType": "address",
          "name": "_targetAddress",
          "type": "address"
        },
        {
          "internalType": "uint256",
          "name": "_target",
          "type": "uint256"
        },
        {
          "internalType": "uint256",
          "name": "_votingPeriod",
          "type": "uint256"
        }
      ],
      "name": "addVote",
      "outputs": [
        {
          "internalType": "int256",
          "name": "",
          "type": "int256"
        }
      ],
      "stateMutability": "nonpayable",
      "type": "function"
    }
  ],
  "bytecode": "0x6080604052620151806000553480156200001857600080fd5b5060405162001d8e38038062001d8e83398181016040528101906200003e9190620000f1565b3360016000600a811062000057576200005662000138565b5b0160006101000a81548173ffffffffffffffffffffffffffffffffffffffff021916908373ffffffffffffffffffffffffffffffffffffffff16021790555081606881905560698190555080606a81905550505062000167565b600080fd5b6000819050919050565b620000cb81620000b6565b8114620000d757600080fd5b50565b600081519050620000eb81620000c0565b92915050565b600080604083850312156200010b576200010a620000b1565b5b60006200011b85828601620000da565b92505060206200012e85828601620000da565b9150509250929050565b7f4e487b7100000000000000000000000000000000000000000000000000000000600052603260045260246000fd5b611c1780620001776000396000f3fe608060405234801561001057600080fd5b50600436106100b45760003560e01c80636e9960c3116100715780636e9960c3146101af578063a7813587146101cd578063b384abef146101eb578063b816f51314610207578063c5f956af14610225578063e763890214610243576100b4565b806327cfe856146100b957806328f64ac9146100d757806330f4ccac1461010e5780633c59958b1461012a5780634d6561c11461015a5780635df8133014610178575b600080fd5b6100c1610261565b6040516100ce9190611354565b60405180910390f35b6100f160048036038101906100ec91906113a0565b610267565b60405161010598979695949392919061140e565b60405180910390f35b610128600480360381019061012391906113a0565b6102cf565b005b610144600480360381019061013f91906114b8565b6109b8565b6040516101519190611524565b60405180910390f35b610162610c45565b60405161016f9190611354565b60405180910390f35b610192600480360381019061018d91906113a0565b610c4b565b6040516101a698979695949392919061140e565b60405180910390f35b6101b7610cb9565b6040516101c491906115ea565b60405180910390f35b6101d5610d3a565b6040516101e29190611354565b60405180910390f35b61020560048036038101906102009190611606565b610d40565b005b61020f611073565b60405161021c9190611646565b60405180910390f35b61022d611099565b60405161023a9190611646565b60405180910390f35b61024b6110bf565b6040516102589190611354565b60405180910390f35b60005481565b60676020528060005260406000206000915090508060000154908060010160009054906101000a900473ffffffffffffffffffffffffffffffffffffffff16908060020154908060030154908060050154908060060154908060070154908060080154905088565b42600d82600a81106102e4576102e3611661565b5b6009020160080154111561032d576040517f08c379a0000000000000000000000000000000000000000000000000000000008152600401610324906116ed565b60405180910390fd5b610336816110c5565b610375576040517f08c379a000000000000000000000000000000000000000000000000000000000815260040161036c90611759565b60405180910390fd5b600d81600a811061038957610388611661565b5b6009020160060154600d82600a81106103a5576103a4611661565b5b60090201600501541115610784576000600d82600a81106103c9576103c8611661565b5b60090201600301541480156103e6575060016103e36110ed565b14155b1561048657600d81600a81106103ff576103fe611661565b5b6009020160010160009054906101000a900473ffffffffffffffffffffffffffffffffffffffff1660016104316110ed565b600a811061044257610441611661565b5b0160006101000a81548173ffffffffffffffffffffffffffffffffffffffff021916908373ffffffffffffffffffffffffffffffffffffffff160217905550610783565b6001600d82600a811061049c5761049b611661565b5b6009020160030154036105c75760005b600a8110156105c157600d82600a81106104c9576104c8611661565b5b6009020160010160009054906101000a900473ffffffffffffffffffffffffffffffffffffffff1673ffffffffffffffffffffffffffffffffffffffff16600182600a811061051b5761051a611661565b5b0160009054906101000a900473ffffffffffffffffffffffffffffffffffffffff1673ffffffffffffffffffffffffffffffffffffffff16036105ae576000600182600a811061056e5761056d611661565b5b0160006101000a81548173ffffffffffffffffffffffffffffffffffffffff021916908373ffffffffffffffffffffffffffffffffffffffff1602179055505b80806105b9906117a8565b9150506104ac565b50610782565b6002600d82600a81106105dd576105dc611661565b5b60090201600301540361066b57600d81600a81106105fe576105fd611661565b5b6009020160010160009054906101000a900473ffffffffffffffffffffffffffffffffffffffff16600b60006101000a81548173ffffffffffffffffffffffffffffffffffffffff021916908373ffffffffffffffffffffffffffffffffffffffff160217905550610781565b6003600d82600a811061068157610680611661565b5b60090201600301540361070f57600d81600a81106106a2576106a1611661565b5b6009020160010160009054906101000a900473ffffffffffffffffffffffffffffffffffffffff16600c60006101000a81548173ffffffffffffffffffffffffffffffffffffffff021916908373ffffffffffffffffffffffffffffffffffffffff160217905550610780565b6004600d82600a811061072557610724611661565b5b60090201600301541480156107575750606954600d82600a811061074c5761074b611661565b5b600902016002015410155b1561077f57600d81600a81106107705761076f611661565b5b60090201600201546068819055505b5b5b5b5b5b6000600d82600a811061079a57610799611661565b5b60090201600001549050806067600083815260200190815260200160002060000181905550600d82600a81106107d3576107d2611661565b5b6009020160010160009054906101000a900473ffffffffffffffffffffffffffffffffffffffff166067600083815260200190815260200160002060010160006101000a81548173ffffffffffffffffffffffffffffffffffffffff021916908373ffffffffffffffffffffffffffffffffffffffff160217905550600d82600a811061086357610862611661565b5b60090201600301546067600083815260200190815260200160002060030181905550600d82600a811061089957610898611661565b5b60090201600501546067600083815260200190815260200160002060050181905550600d82600a81106108cf576108ce611661565b5b60090201600601546067600083815260200190815260200160002060060181905550600d82600a811061090557610904611661565b5b60090201600701546067600083815260200190815260200160002060070181905550600d82600a811061093b5761093a611661565b5b60090201600801546067600083815260200190815260200160002060080181905550600d82600a811061097157610970611661565b5b600902016002015460676000838152602001908152602001600020600201819055506000600d83600a81106109a9576109a8611661565b5b60090201600801819055505050565b60006109c26111ab565b610a01576040517f08c379a00000000000000000000000000000000000000000000000000000000081526004016109f89061183c565b60405180910390fd5b606854821015610a46576040517f08c379a0000000000000000000000000000000000000000000000000000000008152600401610a3d906118a8565b60405180910390fd5b6000610a5061124a565b905060008190507fffffffffffffffffffffffffffffffffffffffffffffffffffffffffffffffff8203610ab9576040517f08c379a0000000000000000000000000000000000000000000000000000000008152600401610ab090611914565b60405180910390fd5b60004233888888604051602001610ad495949392919061199d565b6040516020818303038152906040528051906020012060001c905080600d83600a8110610b0457610b03611661565b5b600902016000018190555086600d83600a8110610b2457610b23611661565b5b6009020160010160006101000a81548173ffffffffffffffffffffffffffffffffffffffff021916908373ffffffffffffffffffffffffffffffffffffffff16021790555085600d83600a8110610b7e57610b7d611661565b5b600902016003018190555084600d83600a8110610b9e57610b9d611661565b5b600902016002018190555042600d83600a8110610bbe57610bbd611661565b5b600902016007018190555060005485610bd791906119fc565b42610be29190611a56565b600d83600a8110610bf657610bf5611661565b5b60090201600801819055507fa578a560f68c1301360cd84f59a6f2fcc8aeefbbc637f3fa97930e1c89cc554f82604051610c309190611354565b60405180910390a18293505050509392505050565b60695481565b600d81600a8110610c5b57600080fd5b600902016000915090508060000154908060010160009054906101000a900473ffffffffffffffffffffffffffffffffffffffff16908060020154908060030154908060050154908060060154908060070154908060080154905088565b610cc1611318565b6001600a806020026040519081016040528092919082600a8015610d30576020028201915b8160009054906101000a900473ffffffffffffffffffffffffffffffffffffffff1673ffffffffffffffffffffffffffffffffffffffff1681526020019060010190808311610ce6575b5050505050905090565b60685481565b600080610d4b611309565b9150915060008211610d92576040517f08c379a0000000000000000000000000000000000000000000000000000000008152600401610d8990611af8565b60405180910390fd5b606a54811015610dd7576040517f08c379a0000000000000000000000000000000000000000000000000000000008152600401610dce90611b64565b60405180910390fd5b610de0846110c5565b610e1f576040517f08c379a0000000000000000000000000000000000000000000000000000000008152600401610e1690611759565b60405180910390fd5b6000600d85600a8110610e3557610e34611661565b5b6009020160040160003373ffffffffffffffffffffffffffffffffffffffff1673ffffffffffffffffffffffffffffffffffffffff168152602001908152602001600020549050838103610e8b5750505061106f565b60018103610edf576001600d86600a8110610ea957610ea8611661565b5b6009020160050154610ebb9190611b84565b600d86600a8110610ecf57610ece611661565b5b6009020160050181905550610f30565b60028103610f2f576001600d86600a8110610efd57610efc611661565b5b6009020160060154610f0f9190611b84565b600d86600a8110610f2357610f22611661565b5b60090201600601819055505b5b60018403610f84576001600d86600a8110610f4e57610f4d611661565b5b6009020160050154610f609190611a56565b600d86600a8110610f7457610f73611661565b5b6009020160050181905550610fd5565b60028403610fd4576001600d86600a8110610fa257610fa1611661565b5b6009020160060154610fb49190611a56565b600d86600a8110610fc857610fc7611661565b5b60090201600601819055505b5b83600d86600a8110610fea57610fe9611661565b5b6009020160040160003373ffffffffffffffffffffffffffffffffffffffff1673ffffffffffffffffffffffffffffffffffffffff168152602001908152602001600020819055507f4d99b957a2bc29a30ebd96a7be8e68fe50a3c701db28a91436490b7d53870ca43385604051611063929190611bb8565b60405180910390a15050505b5050565b600b60009054906101000a900473ffffffffffffffffffffffffffffffffffffffff1681565b600c60009054906101000a900473ffffffffffffffffffffffffffffffffffffffff1681565b606a5481565b600080600d83600a81106110dc576110db611661565b5b600902016008015414159050919050565b600080600090505b600a81101561118357600073ffffffffffffffffffffffffffffffffffffffff16600182600a811061112a57611129611661565b5b0160009054906101000a900473ffffffffffffffffffffffffffffffffffffffff1673ffffffffffffffffffffffffffffffffffffffff160361117057809150506111a8565b808061117b906117a8565b9150506110f5565b507fffffffffffffffffffffffffffffffffffffffffffffffffffffffffffffffff90505b90565b600080600090505b600a811015611241573373ffffffffffffffffffffffffffffffffffffffff16600182600a81106111e7576111e6611661565b5b0160009054906101000a900473ffffffffffffffffffffffffffffffffffffffff1673ffffffffffffffffffffffffffffffffffffffff160361122e576001915050611247565b8080611239906117a8565b9150506111b3565b50600090505b90565b600080600090505b600a8110156112e15742600d82600a81106112705761126f611661565b5b6009020160080154116112ce576000600d82600a811061129357611292611661565b5b6009020160080154146112c5576112c4600d82600a81106112b7576112b6611661565b5b60090201600001546102cf565b5b80915050611306565b80806112d9906117a8565b915050611252565b507fffffffffffffffffffffffffffffffffffffffffffffffffffffffffffffffff90505b90565b60008060016007915091509091565b604051806101400160405280600a90602082028036833780820191505090505090565b6000819050919050565b61134e8161133b565b82525050565b60006020820190506113696000830184611345565b92915050565b600080fd5b61137d8161133b565b811461138857600080fd5b50565b60008135905061139a81611374565b92915050565b6000602082840312156113b6576113b561136f565b5b60006113c48482850161138b565b91505092915050565b600073ffffffffffffffffffffffffffffffffffffffff82169050919050565b60006113f8826113cd565b9050919050565b611408816113ed565b82525050565b600061010082019050611424600083018b611345565b611431602083018a6113ff565b61143e6040830189611345565b61144b6060830188611345565b6114586080830187611345565b61146560a0830186611345565b61147260c0830185611345565b61147f60e0830184611345565b9998505050505050505050565b611495816113ed565b81146114a057600080fd5b50565b6000813590506114b28161148c565b92915050565b6000806000606084860312156114d1576114d061136f565b5b60006114df868287016114a3565b93505060206114f08682870161138b565b92505060406115018682870161138b565b9150509250925092565b6000819050919050565b61151e8161150b565b82525050565b60006020820190506115396000830184611515565b92915050565b6000600a9050919050565b600081905092915050565b6000819050919050565b611568816113ed565b82525050565b600061157a838361155f565b60208301905092915050565b6000602082019050919050565b61159c8161153f565b6115a6818461154a565b92506115b182611555565b8060005b838110156115e25781516115c9878261156e565b96506115d483611586565b9250506001810190506115b5565b505050505050565b6000610140820190506116006000830184611593565b92915050565b6000806040838503121561161d5761161c61136f565b5b600061162b8582860161138b565b925050602061163c8582860161138b565b9150509250929050565b600060208201905061165b60008301846113ff565b92915050565b7f4e487b7100000000000000000000000000000000000000000000000000000000600052603260045260246000fd5b600082825260208201905092915050565b7f566f746520686173206e6f7420656e6465640000000000000000000000000000600082015250565b60006116d7601283611690565b91506116e2826116a1565b602082019050919050565b60006020820190508181036000830152611706816116ca565b9050919050565b7f566f7465206973206e6f7420696e697469616c697a6564000000000000000000600082015250565b6000611743601783611690565b915061174e8261170d565b602082019050919050565b6000602082019050818103600083015261177281611736565b9050919050565b7f4e487b7100000000000000000000000000000000000000000000000000000000600052601160045260246000fd5b60006117b38261133b565b91507fffffffffffffffffffffffffffffffffffffffffffffffffffffffffffffffff82036117e5576117e4611779565b5b600182019050919050565b7f4f6e6c792061646d696e2063616e2061646420766f7465000000000000000000600082015250565b6000611826601783611690565b9150611831826117f0565b602082019050919050565b6000602082019050818103600083015261185581611819565b9050919050565b7f566f74696e6720706572696f6420697320746f6f2073686f7274000000000000600082015250565b6000611892601a83611690565b915061189d8261185c565b602082019050919050565b600060208201905081810360008301526118c181611885565b9050919050565b7f4e6f206672656520766f746520696e6465780000000000000000000000000000600082015250565b60006118fe601283611690565b9150611909826118c8565b602082019050919050565b6000602082019050818103600083015261192d816118f1565b9050919050565b6000819050919050565b61194f61194a8261133b565b611934565b82525050565b60008160601b9050919050565b600061196d82611955565b9050919050565b600061197f82611962565b9050919050565b611997611992826113ed565b611974565b82525050565b60006119a9828861193e565b6020820191506119b98287611986565b6014820191506119c98286611986565b6014820191506119d9828561193e565b6020820191506119e9828461193e565b6020820191508190509695505050505050565b6000611a078261133b565b9150611a128361133b565b9250817fffffffffffffffffffffffffffffffffffffffffffffffffffffffffffffffff0483118215151615611a4b57611a4a611779565b5b828202905092915050565b6000611a618261133b565b9150611a6c8361133b565b9250827fffffffffffffffffffffffffffffffffffffffffffffffffffffffffffffffff03821115611aa157611aa0611779565b5b828201905092915050565b7f42616c616e636520746f6f206c6f770000000000000000000000000000000000600082015250565b6000611ae2600f83611690565b9150611aed82611aac565b602082019050919050565b60006020820190508181036000830152611b1181611ad5565b9050919050565b7f486f6c64696e6720706572696f6420746f6f2073686f72740000000000000000600082015250565b6000611b4e601883611690565b9150611b5982611b18565b602082019050919050565b60006020820190508181036000830152611b7d81611b41565b9050919050565b6000611b8f8261133b565b9150611b9a8361133b565b925082821015611bad57611bac611779565b5b828203905092915050565b6000604082019050611bcd60008301856113ff565b611bda6020830184611345565b939250505056fea264697066735822122025911f3d32e5645f544fa568fb5b77c8b40c76c0cc19046d367dcd37dd96fb9d64736f6c634300080e0033",
  "immutableReferences": {},
  "source": "// SPDX-License-Identifier: MIT \npragma solidity ^0.8.14;\n\ncontract Admin{\n    struct Vote {\n        uint id;\n        address targetAddress;\n        uint votingPeriod;\n        uint target;\n        mapping(address => uint) voters;\n        uint NumberOfApprovals;\n        uint NumberOfDisapprovals;\n        uint startDate;\n        uint endDate;\n    }\n    // Seconds in one day   \n    uint public DAY = 86400;\n    // Main properties of the contract\n    address[10] admin;\n    address public libraryAddress;\n    address public treasuryAddress;\n    Vote[10] public votes;\n    mapping(uint => Vote) public votesArchive;\n    // in Days\n    uint public votePeriod;\n    uint public minVotePeriod;\n    uint public minStableBalancePeriod;\n\n    // Events\n    event VoteCreated(uint index);\n    event Voted(address voter, uint vote);\n\n    constructor(uint _minVotingPeriod, uint _minStableBalancePeriod) {\n        admin[0] = msg.sender;\n        minVotePeriod = votePeriod = _minVotingPeriod;\n        minStableBalancePeriod = _minStableBalancePeriod;\n    }\n\n    // add/change the vote of specific holder on specific vote\n    // vote : 0 -> no vote\n    //        1 -> support the vote\n    //        2 -> reject the vote\n    //        * -> ignore\n    // to be able to vote you must:\n    //  1- be holder.\n    //  2- have not moved any of your Balance since \n    function vote(uint _voteIndex, uint _vote) public {\n        // no real connection for now\n        (uint balance, uint holdingTime) = getBalance();\n\n        require(balance > 0, \"Balance too low\");\n        require(holdingTime >= minStableBalancePeriod, \"Holding period too short\");\n        require(isVoteInitialised(_voteIndex), \"Vote is not initialized\");\n\n        uint currentVote = votes[_voteIndex].voters[msg.sender];\n        // new vote equals old vote then do nothing\n        if (currentVote == _vote) {\n            return;\n        }\n        // old vote need be changed -> first undo old vote\n        // if support then remove 1 from Approvals\n        if (currentVote == 1) {\n            votes[_voteIndex].NumberOfApprovals = votes[_voteIndex].NumberOfApprovals - 1;\n        // if against the proposal then remove 1 from Disapprovals\n        } else if (currentVote == 2) {\n            votes[_voteIndex].NumberOfDisapprovals = votes[_voteIndex].NumberOfDisapprovals - 1;\n        }\n        // now it is safe to add the new vote\n        if (_vote == 1) {\n            votes[_voteIndex].NumberOfApprovals = votes[_voteIndex].NumberOfApprovals + 1;\n        } else if (_vote == 2) {\n            votes[_voteIndex].NumberOfDisapprovals = votes[_voteIndex].NumberOfDisapprovals + 1;\n        }\n        // update state of this voter\n        votes[_voteIndex].voters[msg.sender] = _vote;\n        emit Voted(msg.sender, _vote);\n    }\n\n    function getAdmin() public view returns(address[10] memory _admin) {\n        return admin;\n    }\n\n    // resolve vote if ended\n    // vote ends when endDate is smaller than current block timestamp\n    function resolveVote(uint _voteIndex) public {\n        require(votes[_voteIndex].endDate <= block.timestamp, \"Vote has not ended\");\n        require(isVoteInitialised(_voteIndex), \"Vote is not initialized\");\n        if (votes[_voteIndex].NumberOfApprovals > votes[_voteIndex].NumberOfDisapprovals) {\n            // approve vote\n            // add admin\n            if (votes[_voteIndex].target == 0 && (uint) (getFreeAdminIndex()) != 1) {\n                admin[(uint) (getFreeAdminIndex())] = votes[_voteIndex].targetAddress;\n            // remove admin\n            } else if (votes[_voteIndex].target == 1) {\n                for (uint index = 0; index < admin.length; index++) {\n                    if (admin[index] == votes[_voteIndex].targetAddress) {\n                        admin[index] = address(0);\n                    }\n                }\n            // change library address\n            } else if (votes[_voteIndex].target == 2) {\n                libraryAddress = votes[_voteIndex].targetAddress;\n            // change treasury address\n            } else if (votes[_voteIndex].target == 3) {\n                treasuryAddress = votes[_voteIndex].targetAddress;\n            // change vote period\n            } else if (votes[_voteIndex].target == 4 && votes[_voteIndex].votingPeriod >= minVotePeriod) {\n                votePeriod = votes[_voteIndex].votingPeriod;\n            }\n            \n        }\n        // move vote to archive (actually making a copy, without the voters to not make this call too expensive)\n        uint voteId = votes[_voteIndex].id;\n        votesArchive[voteId].id = voteId;\n        votesArchive[voteId].targetAddress = votes[_voteIndex].targetAddress;\n        votesArchive[voteId].target = votes[_voteIndex].target;\n        votesArchive[voteId].NumberOfApprovals = votes[_voteIndex].NumberOfApprovals;\n        votesArchive[voteId].NumberOfDisapprovals = votes[_voteIndex].NumberOfDisapprovals;\n        votesArchive[voteId].startDate = votes[_voteIndex].startDate;\n        votesArchive[voteId].endDate = votes[_voteIndex].endDate;  \n        votesArchive[voteId].votingPeriod = votes[_voteIndex].votingPeriod;    \n  \n        // mark the vote in the array as ended so that it will be replaced in the future\n        votes[_voteIndex].endDate = 0;   \n    }\n\n\n    // add new vote (only admin can do this)\n    // returns vote id\n    function addVote(address _targetAddress, uint _target, uint _votingPeriod) public returns(int) {\n        require(isAdmin(), \"Only admin can add vote\");\n        require(_votingPeriod >= votePeriod, \"Voting period is too short\");\n        int freeVoteIndex = getFreeVoteIndex();\n        uint castedIndex = (uint) (freeVoteIndex) ;\n        require(freeVoteIndex != -1, \"No free vote index\");\n        uint voteId = uint(keccak256(abi.encodePacked(block.timestamp, msg.sender, _targetAddress, _target, _votingPeriod)));\n        votes[castedIndex].id = voteId;\n        votes[castedIndex].targetAddress = _targetAddress;\n        votes[castedIndex].target = _target;\n        votes[castedIndex].votingPeriod = _votingPeriod;\n        votes[castedIndex].startDate = block.timestamp;\n        votes[castedIndex].endDate = block.timestamp + _votingPeriod * DAY;\n        emit VoteCreated(castedIndex);\n        return freeVoteIndex;\n    }\n\n    // checks if caller is admin\n    function isAdmin() private view returns(bool) {\n        for (uint index = 0; index < admin.length; index++) {\n            if (admin[index] == msg.sender) {\n                return true;\n            }\n        }\n        return false;\n    }\n\n    // check if there is avaliable place for new admin\n    // returns index for the new admin in the array\n    // else returns -1\n    function getFreeAdminIndex() private view returns(int) {\n        for (uint index = 0; index < admin.length; index++) {\n            if (admin[index] == address(0)) {\n                return int(index);\n            }\n        }\n        return -1;\n    }\n\n    // check if there is available place for new vote\n    // returns index for the new vote it the array\n    // else returns -1\n    function getFreeVoteIndex() private returns(int) {\n        for (uint index = 0; index < votes.length; index++) {\n            // check for expired votes\n            if (votes[index].endDate <= block.timestamp) {\n                // check if vote is not resolved then resolve it\n                if (votes[index].endDate != 0) {\n                    resolveVote(votes[index].id);\n                }\n                return int(index);\n            }\n        }\n        return -1;\n    }\n\n    // checks if vote is initialisied\n    function isVoteInitialised(uint voteIndex) private view returns(bool) {\n        return votes[voteIndex].endDate != 0;\n    }\n\n    // establishes connection with library & gets the balance of caller\n    // and the number of days the user have been hodling :)\n    function getBalance() private returns(uint, uint) {\n        return (1, 7);\n    }\n}\n\n",
  "sourcePath": "/Users/ashraf.beshtawi/Desktop/Andromeda/contracts/Admin.sol",
  "compiler": {
    "name": "solc",
    "version": "0.8.14+commit.80d49f37.Emscripten.clang"
  },
  "schemaVersion": "3.4.7",
  "updatedAt": "2022-11-20T21:36:47.841Z",
  "devdoc": {
    "kind": "dev",
    "methods": {},
    "version": 1
  },
  "userdoc": {
    "kind": "user",
    "methods": {},
    "version": 1
  }
}