{
  "contractName": "Admin",
  "abi": [
    {
      "inputs": [],
      "stateMutability": "nonpayable",
      "type": "constructor"
    },
    {
      "inputs": [],
      "name": "DAY",
      "outputs": [
        {
          "internalType": "uint256",
          "name": "",
          "type": "uint256"
        }
      ],
      "stateMutability": "view",
      "type": "function"
    },
    {
      "inputs": [
        {
          "internalType": "address",
          "name": "_admin",
          "type": "address"
        }
      ],
      "name": "addAdmin",
      "outputs": [],
      "stateMutability": "nonpayable",
      "type": "function"
    },
    {
      "inputs": [],
      "name": "getAdmin",
      "outputs": [
        {
          "internalType": "address[10]",
          "name": "_admin",
          "type": "address[10]"
        }
      ],
      "stateMutability": "view",
      "type": "function"
    },
    {
      "inputs": [
        {
          "internalType": "uint256",
          "name": "_voteIndex",
          "type": "uint256"
        }
      ],
      "name": "resolveVote",
      "outputs": [],
      "stateMutability": "nonpayable",
      "type": "function"
    }
  ],
  "bytecode": "0x60806040526201518060005534801561001757600080fd5b503360016000600a811061002e5761002d610082565b5b0160006101000a81548173ffffffffffffffffffffffffffffffffffffffff021916908373ffffffffffffffffffffffffffffffffffffffff1602179055506000605e819055506000605f819055506100b1565b7f4e487b7100000000000000000000000000000000000000000000000000000000600052603260045260246000fd5b6107e5806100c06000396000f3fe608060405234801561001057600080fd5b506004361061004c5760003560e01c806327cfe8561461005157806330f4ccac1461006f5780636e9960c31461008b57806370480275146100a9575b600080fd5b6100596100c5565b60405161006691906104cc565b60405180910390f35b61008960048036038101906100849190610518565b6100cb565b005b6100936103b8565b6040516100a09190610622565b60405180910390f35b6100c360048036038101906100be919061066a565b610439565b005b60005481565b42600d82600a81106100e0576100df610697565b5b60080201600701541115610129576040517f08c379a000000000000000000000000000000000000000000000000000000000815260040161012090610723565b60405180910390fd5b6000600d82600a811061013f5761013e610697565b5b600802016007015403610187576040517f08c379a000000000000000000000000000000000000000000000000000000000815260040161017e9061078f565b60405180910390fd5b600d81600a811061019b5761019a610697565b5b6008020160050154600d82600a81106101b7576101b6610697565b5b5050506000600d82600a81106101d0576101cf610697565b5b6008020160000154905080605d600083815260200190815260200160002060000181905550600d82600a811061020957610208610697565b5b6008020160010160009054906101000a900473ffffffffffffffffffffffffffffffffffffffff16605d600083815260200190815260200160002060010160006101000a81548173ffffffffffffffffffffffffffffffffffffffff021916908373ffffffffffffffffffffffffffffffffffffffff160217905550600d82600a811061029957610298610697565b5b6008020160020154605d600083815260200190815260200160002060020181905550600d82600a81106102cf576102ce610697565b5b6008020160040154605d600083815260200190815260200160002060040181905550600d82600a811061030557610304610697565b5b6008020160050154605d600083815260200190815260200160002060050181905550600d82600a811061033b5761033a610697565b5b6008020160060154605d600083815260200190815260200160002060060181905550600d82600a811061037157610370610697565b5b6008020160070154605d6000838152602001908152602001600020600701819055506000600d83600a81106103a9576103a8610697565b5b60080201600701819055505050565b6103c0610490565b6001600a806020026040519081016040528092919082600a801561042f576020028201915b8160009054906101000a900473ffffffffffffffffffffffffffffffffffffffff1673ffffffffffffffffffffffffffffffffffffffff16815260200190600101908083116103e5575b5050505050905090565b806001600a80811061044e5761044d610697565b5b0160006101000a81548173ffffffffffffffffffffffffffffffffffffffff021916908373ffffffffffffffffffffffffffffffffffffffff16021790555050565b604051806101400160405280600a90602082028036833780820191505090505090565b6000819050919050565b6104c6816104b3565b82525050565b60006020820190506104e160008301846104bd565b92915050565b600080fd5b6104f5816104b3565b811461050057600080fd5b50565b600081359050610512816104ec565b92915050565b60006020828403121561052e5761052d6104e7565b5b600061053c84828501610503565b91505092915050565b6000600a9050919050565b600081905092915050565b6000819050919050565b600073ffffffffffffffffffffffffffffffffffffffff82169050919050565b600061059082610565565b9050919050565b6105a081610585565b82525050565b60006105b28383610597565b60208301905092915050565b6000602082019050919050565b6105d481610545565b6105de8184610550565b92506105e98261055b565b8060005b8381101561061a57815161060187826105a6565b965061060c836105be565b9250506001810190506105ed565b505050505050565b60006101408201905061063860008301846105cb565b92915050565b61064781610585565b811461065257600080fd5b50565b6000813590506106648161063e565b92915050565b6000602082840312156106805761067f6104e7565b5b600061068e84828501610655565b91505092915050565b7f4e487b7100000000000000000000000000000000000000000000000000000000600052603260045260246000fd5b600082825260208201905092915050565b7f566f7465206973206e6f7420656e646564000000000000000000000000000000600082015250565b600061070d6011836106c6565b9150610718826106d7565b602082019050919050565b6000602082019050818103600083015261073c81610700565b9050919050565b7f566f7465206973206e6f7420696e697469616c697a6564000000000000000000600082015250565b60006107796017836106c6565b915061078482610743565b602082019050919050565b600060208201905081810360008301526107a88161076c565b905091905056fea26469706673582212200064f7b4ab737ddaaabb57df37c2cc146e7cb3dec50a8dd4495768a9c090480c64736f6c634300080e0033",
  "immutableReferences": {},
  "source": "pragma solidity ^0.8.14;\n\ncontract Admin{\n    struct Vote {\n        uint id;\n        address targetAddress;\n        uint target;\n        mapping(address => bool) voters;\n        uint NumberOfApprovals;\n        uint NumberOfDisapprovals;\n        uint startDate;\n        uint endDate;\n    }\n    // Date constants   \n    uint public DAY = 86400;\n    // Main properties of the contract\n    address[10] admin;\n    address libraryAddress;\n    address treasuryAddress;\n    Vote[10] votes;\n    mapping(uint => Vote) votesArchive;\n    uint votePeriod;\n    uint minVotePeriod;\n\n    constructor() {\n        admin[0] = msg.sender;\n        votePeriod = 0;\n        minVotePeriod = 0;\n    }\n\n    function addAdmin(address _admin) public {\n        admin[admin.length] = _admin;\n    }\n\n    function getAdmin() public view returns(address[10] memory _admin) {\n        return admin;\n    }\n\n    // check if there is avaliable place for new admin\n    function hasFreeSpaceForAdmin() private view returns(bool) {\n        for (uint index = 0; index < admin.length; index++) {\n            if (admin[index] == address(0)) {\n                return true;\n            }\n        }\n        return false;\n    }\n\n    // check if there is available place for new vote\n    function hasFreeSpaceForVote() private view returns(bool) {\n        for (uint index = 0; index < votes.length; index++) {\n            if (votes[index].endDate <= block.timestamp) {\n                return true;\n            }\n        }\n        return false;\n    }\n    // resolve vote if ended\n    function resolveVote(uint _voteIndex) public {\n        require(votes[_voteIndex].endDate <= block.timestamp, \"Vote is not ended\");\n        require(votes[_voteIndex].endDate != 0, \"Vote is not initialized\");\n        if (votes[_voteIndex].NumberOfApprovals > votes[_voteIndex].NumberOfDisapprovals) {\n            // TO-DO\n            // approve vote\n            \n        }\n        // move vote to archive (actually making a copy, without the voters to not make this call too expensive)\n        uint voteId = votes[_voteIndex].id;\n        votesArchive[voteId].id = voteId;\n        votesArchive[voteId].targetAddress = votes[_voteIndex].targetAddress;\n        votesArchive[voteId].target = votes[_voteIndex].target;\n        votesArchive[voteId].NumberOfApprovals = votes[_voteIndex].NumberOfApprovals;\n        votesArchive[voteId].NumberOfDisapprovals = votes[_voteIndex].NumberOfDisapprovals;\n        votesArchive[voteId].startDate = votes[_voteIndex].startDate;\n        votesArchive[voteId].endDate = votes[_voteIndex].endDate;    \n        // mark the vote in the array as ended so that it will be replaced in the future\n        votes[_voteIndex].endDate = 0;   \n    }\n}",
  "sourcePath": "/Users/ashraf.beshtawi/Desktop/Andromeda/contracts/Admin.sol",
  "compiler": {
    "name": "solc",
    "version": "0.8.14+commit.80d49f37.Emscripten.clang"
  },
  "schemaVersion": "3.4.7",
  "updatedAt": "2022-07-23T21:09:48.242Z",
  "devdoc": {
    "kind": "dev",
    "methods": {},
    "version": 1
  },
  "userdoc": {
    "kind": "user",
    "methods": {},
    "version": 1
  }
}