{
  "contractName": "Admin",
  "abi": [
    {
      "inputs": [
        {
          "internalType": "address",
          "name": "_admin",
          "type": "address"
        }
      ],
      "name": "addAdmin",
      "outputs": [],
      "stateMutability": "nonpayable",
      "type": "function"
    },
    {
      "inputs": [],
      "name": "getAdmin",
      "outputs": [
        {
          "internalType": "address[10]",
          "name": "_admin",
          "type": "address[10]"
        }
      ],
      "stateMutability": "view",
      "type": "function"
    }
  ],
  "bytecode": "0x608060405234801561001057600080fd5b5061032c806100206000396000f3fe608060405234801561001057600080fd5b50600436106100365760003560e01c80636e9960c31461003b5780637048027514610059575b600080fd5b610043610075565b604051610050919061024d565b60405180910390f35b610073600480360381019061006e919061029a565b6100f6565b005b61007d61014d565b6000600a806020026040519081016040528092919082600a80156100ec576020028201915b8160009054906101000a900473ffffffffffffffffffffffffffffffffffffffff1673ffffffffffffffffffffffffffffffffffffffff16815260200190600101908083116100a2575b5050505050905090565b806000600a80811061010b5761010a6102c7565b5b0160006101000a81548173ffffffffffffffffffffffffffffffffffffffff021916908373ffffffffffffffffffffffffffffffffffffffff16021790555050565b604051806101400160405280600a90602082028036833780820191505090505090565b6000600a9050919050565b600081905092915050565b6000819050919050565b600073ffffffffffffffffffffffffffffffffffffffff82169050919050565b60006101bb82610190565b9050919050565b6101cb816101b0565b82525050565b60006101dd83836101c2565b60208301905092915050565b6000602082019050919050565b6101ff81610170565b610209818461017b565b925061021482610186565b8060005b8381101561024557815161022c87826101d1565b9650610237836101e9565b925050600181019050610218565b505050505050565b60006101408201905061026360008301846101f6565b92915050565b600080fd5b610277816101b0565b811461028257600080fd5b50565b6000813590506102948161026e565b92915050565b6000602082840312156102b0576102af610269565b5b60006102be84828501610285565b91505092915050565b7f4e487b7100000000000000000000000000000000000000000000000000000000600052603260045260246000fdfea26469706673582212202e5207c8d933358e73ca925bb2eda32a0f9b8f06d37274357d8fb1524040094e64736f6c634300080e0033",
  "immutableReferences": {},
  "source": "pragma solidity ^0.8.14;\n\ncontract Admin{\n    struct Vote {\n        uint id;\n        address targerAddress;\n        uint target;\n        mapping(address => bool) voters;\n        uint NumberOfApprovals;\n        uint NumberOfDisapprovals;\n        uint startDate;\n        uint endDate;\n    }\n    // Main properties of the contract\n    address[10] admin;\n    address libraryAddress;\n    address treasuryAddress;\n    Vote[10] votes;\n    Vote[] votesArchive;\n    uint votePeriod;\n    uint minVotePeriod;\n\n    function addAdmin(address _admin) public {\n        admin[admin.length] = _admin;\n    }\n\n    function getAdmin() public view returns(address[10] memory _admin) {\n        return admin;\n    }\n\n}",
  "sourcePath": "/Users/ashraf.beshtawi/Desktop/Andromeda/contracts/Admin.sol",
  "compiler": {
    "name": "solc",
    "version": "0.8.14+commit.80d49f37.Emscripten.clang"
  },
  "schemaVersion": "3.4.7",
  "updatedAt": "2022-07-22T14:46:09.809Z",
  "devdoc": {
    "kind": "dev",
    "methods": {},
    "version": 1
  },
  "userdoc": {
    "kind": "user",
    "methods": {},
    "version": 1
  }
}