{
  "contractName": "Andromeda",
  "abi": [
    {
      "inputs": [
        {
          "internalType": "uint256",
          "name": "_totalSupply",
          "type": "uint256"
        },
        {
          "internalType": "uint256",
          "name": "_decimals",
          "type": "uint256"
        }
      ],
      "stateMutability": "nonpayable",
      "type": "constructor"
    },
    {
      "anonymous": false,
      "inputs": [
        {
          "indexed": true,
          "internalType": "address",
          "name": "owner",
          "type": "address"
        },
        {
          "indexed": true,
          "internalType": "address",
          "name": "spender",
          "type": "address"
        },
        {
          "indexed": false,
          "internalType": "uint256",
          "name": "value",
          "type": "uint256"
        }
      ],
      "name": "Approve",
      "type": "event"
    },
    {
      "anonymous": false,
      "inputs": [
        {
          "indexed": true,
          "internalType": "address",
          "name": "from",
          "type": "address"
        },
        {
          "indexed": true,
          "internalType": "address",
          "name": "to",
          "type": "address"
        },
        {
          "indexed": false,
          "internalType": "uint256",
          "name": "value",
          "type": "uint256"
        }
      ],
      "name": "Transfer",
      "type": "event"
    },
    {
      "inputs": [
        {
          "internalType": "address",
          "name": "",
          "type": "address"
        }
      ],
      "name": "admins",
      "outputs": [
        {
          "internalType": "string",
          "name": "name",
          "type": "string"
        },
        {
          "internalType": "string",
          "name": "email",
          "type": "string"
        },
        {
          "internalType": "string",
          "name": "website",
          "type": "string"
        },
        {
          "internalType": "uint256",
          "name": "mobile",
          "type": "uint256"
        },
        {
          "internalType": "string",
          "name": "facebook",
          "type": "string"
        },
        {
          "internalType": "string",
          "name": "twitter",
          "type": "string"
        },
        {
          "internalType": "address",
          "name": "m_address",
          "type": "address"
        }
      ],
      "stateMutability": "view",
      "type": "function",
      "constant": true
    },
    {
      "inputs": [
        {
          "internalType": "address",
          "name": "",
          "type": "address"
        },
        {
          "internalType": "address",
          "name": "",
          "type": "address"
        }
      ],
      "name": "allowance",
      "outputs": [
        {
          "internalType": "uint256",
          "name": "",
          "type": "uint256"
        }
      ],
      "stateMutability": "view",
      "type": "function",
      "constant": true
    },
    {
      "inputs": [
        {
          "internalType": "address",
          "name": "",
          "type": "address"
        }
      ],
      "name": "balances",
      "outputs": [
        {
          "internalType": "uint256",
          "name": "",
          "type": "uint256"
        }
      ],
      "stateMutability": "view",
      "type": "function",
      "constant": true
    },
    {
      "inputs": [],
      "name": "decimals",
      "outputs": [
        {
          "internalType": "uint256",
          "name": "",
          "type": "uint256"
        }
      ],
      "stateMutability": "view",
      "type": "function",
      "constant": true
    },
    {
      "inputs": [],
      "name": "name",
      "outputs": [
        {
          "internalType": "string",
          "name": "",
          "type": "string"
        }
      ],
      "stateMutability": "view",
      "type": "function",
      "constant": true
    },
    {
      "inputs": [],
      "name": "symbol",
      "outputs": [
        {
          "internalType": "string",
          "name": "",
          "type": "string"
        }
      ],
      "stateMutability": "view",
      "type": "function",
      "constant": true
    },
    {
      "inputs": [],
      "name": "totalSupply",
      "outputs": [
        {
          "internalType": "uint256",
          "name": "",
          "type": "uint256"
        }
      ],
      "stateMutability": "view",
      "type": "function",
      "constant": true
    },
    {
      "inputs": [
        {
          "internalType": "address",
          "name": "_owner",
          "type": "address"
        }
      ],
      "name": "balanceOf",
      "outputs": [
        {
          "internalType": "uint256",
          "name": "",
          "type": "uint256"
        }
      ],
      "stateMutability": "view",
      "type": "function",
      "constant": true
    },
    {
      "inputs": [
        {
          "internalType": "address",
          "name": "_to",
          "type": "address"
        },
        {
          "internalType": "uint256",
          "name": "_value",
          "type": "uint256"
        }
      ],
      "name": "transfer",
      "outputs": [
        {
          "internalType": "bool",
          "name": "",
          "type": "bool"
        }
      ],
      "stateMutability": "nonpayable",
      "type": "function"
    },
    {
      "inputs": [
        {
          "internalType": "address",
          "name": "_from",
          "type": "address"
        },
        {
          "internalType": "address",
          "name": "_to",
          "type": "address"
        },
        {
          "internalType": "uint256",
          "name": "_value",
          "type": "uint256"
        }
      ],
      "name": "transferFROM",
      "outputs": [
        {
          "internalType": "bool",
          "name": "",
          "type": "bool"
        }
      ],
      "stateMutability": "nonpayable",
      "type": "function"
    },
    {
      "inputs": [
        {
          "internalType": "address",
          "name": "spender",
          "type": "address"
        },
        {
          "internalType": "uint256",
          "name": "amount",
          "type": "uint256"
        }
      ],
      "name": "approve",
      "outputs": [
        {
          "internalType": "bool",
          "name": "",
          "type": "bool"
        }
      ],
      "stateMutability": "nonpayable",
      "type": "function"
    }
  ],
  "bytecode": "0x60806040526040518060400160405280600981526020017f416e64726f6d6564610000000000000000000000000000000000000000000000815250600490805190602001906200005192919062000351565b506040518060400160405280600381526020017f414e440000000000000000000000000000000000000000000000000000000000815250600590805190602001906200009f92919062000351565b50348015620000ad57600080fd5b5060405162001943380380620019438339818101604052810190620000d3919062000441565b80600a620000e291906200060b565b82620000ef91906200065c565b600381905550600354600160003073ffffffffffffffffffffffffffffffffffffffff1673ffffffffffffffffffffffffffffffffffffffff168152602001908152602001600020819055506040518060e001604052806040518060400160405280600681526020017f417368726166000000000000000000000000000000000000000000000000000081525081526020016040518060400160405280600381526020017f78787800000000000000000000000000000000000000000000000000000000008152508152602001604051806020016040528060008152508152602001600081526020016040518060200160405280600081525081526020016040518060200160405280600081525081526020013373ffffffffffffffffffffffffffffffffffffffff168152506000803373ffffffffffffffffffffffffffffffffffffffff1673ffffffffffffffffffffffffffffffffffffffff16815260200190815260200160002060008201518160000190805190602001906200027892919062000351565b5060208201518160010190805190602001906200029792919062000351565b506040820151816002019080519060200190620002b692919062000351565b50606082015181600301556080820151816004019080519060200190620002df92919062000351565b5060a0820151816005019080519060200190620002fe92919062000351565b5060c08201518160060160006101000a81548173ffffffffffffffffffffffffffffffffffffffff021916908373ffffffffffffffffffffffffffffffffffffffff160217905550905050505062000721565b8280546200035f90620006ec565b90600052602060002090601f016020900481019282620003835760008555620003cf565b82601f106200039e57805160ff1916838001178555620003cf565b82800160010185558215620003cf579182015b82811115620003ce578251825591602001919060010190620003b1565b5b509050620003de9190620003e2565b5090565b5b80821115620003fd576000816000905550600101620003e3565b5090565b600080fd5b6000819050919050565b6200041b8162000406565b81146200042757600080fd5b50565b6000815190506200043b8162000410565b92915050565b600080604083850312156200045b576200045a62000401565b5b60006200046b858286016200042a565b92505060206200047e858286016200042a565b9150509250929050565b7f4e487b7100000000000000000000000000000000000000000000000000000000600052601160045260246000fd5b60008160011c9050919050565b6000808291508390505b60018511156200051657808604811115620004ee57620004ed62000488565b5b6001851615620004fe5780820291505b80810290506200050e85620004b7565b9450620004ce565b94509492505050565b60008262000531576001905062000604565b8162000541576000905062000604565b81600181146200055a576002811462000565576200059b565b600191505062000604565b60ff8411156200057a576200057962000488565b5b8360020a91508482111562000594576200059362000488565b5b5062000604565b5060208310610133831016604e8410600b8410161715620005d55782820a905083811115620005cf57620005ce62000488565b5b62000604565b620005e48484846001620004c4565b92509050818404811115620005fe57620005fd62000488565b5b81810290505b9392505050565b6000620006188262000406565b9150620006258362000406565b9250620006547fffffffffffffffffffffffffffffffffffffffffffffffffffffffffffffffff84846200051f565b905092915050565b6000620006698262000406565b9150620006768362000406565b9250817fffffffffffffffffffffffffffffffffffffffffffffffffffffffffffffffff0483118215151615620006b257620006b162000488565b5b828202905092915050565b7f4e487b7100000000000000000000000000000000000000000000000000000000600052602260045260246000fd5b600060028204905060018216806200070557607f821691505b6020821081036200071b576200071a620006bd565b5b50919050565b61121280620007316000396000f3fe608060405234801561001057600080fd5b50600436106100a95760003560e01c8063429b62e511610071578063429b62e5146101685780635f5cf6be1461019e57806370a08231146101ce57806395d89b41146101fe578063a9059cbb1461021c578063dd62ed3e1461024c576100a9565b806306fdde03146100ae578063095ea7b3146100cc57806318160ddd146100fc57806327e235e31461011a578063313ce5671461014a575b600080fd5b6100b661027c565b6040516100c39190610d2f565b60405180910390f35b6100e660048036038101906100e19190610dea565b61030a565b6040516100f39190610e45565b60405180910390f35b6101046103fc565b6040516101119190610e6f565b60405180910390f35b610134600480360381019061012f9190610e8a565b610402565b6040516101419190610e6f565b60405180910390f35b61015261041a565b60405161015f9190610e6f565b60405180910390f35b610182600480360381019061017d9190610e8a565b610420565b6040516101959796959493929190610ec6565b60405180910390f35b6101b860048036038101906101b39190610f58565b61072a565b6040516101c59190610e45565b60405180910390f35b6101e860048036038101906101e39190610e8a565b6109c2565b6040516101f59190610e6f565b60405180910390f35b610206610a0b565b6040516102139190610d2f565b60405180910390f35b61023660048036038101906102319190610dea565b610a99565b6040516102439190610e45565b60405180910390f35b61026660048036038101906102619190610fab565b610c71565b6040516102739190610e6f565b60405180910390f35b600480546102899061101a565b80601f01602080910402602001604051908101604052809291908181526020018280546102b59061101a565b80156103025780601f106102d757610100808354040283529160200191610302565b820191906000526020600020905b8154815290600101906020018083116102e557829003601f168201915b505050505081565b600081600260003373ffffffffffffffffffffffffffffffffffffffff1673ffffffffffffffffffffffffffffffffffffffff16815260200190815260200160002060008573ffffffffffffffffffffffffffffffffffffffff1673ffffffffffffffffffffffffffffffffffffffff168152602001908152602001600020819055508273ffffffffffffffffffffffffffffffffffffffff163373ffffffffffffffffffffffffffffffffffffffff167f6e11fb1b7f119e3f2fa29896ef5fdf8b8a2d0d4df6fe90ba8668e7d8b2ffa25e846040516103ea9190610e6f565b60405180910390a36001905092915050565b60035481565b60016020528060005260406000206000915090505481565b60065481565b60006020528060005260406000206000915090508060000180546104439061101a565b80601f016020809104026020016040519081016040528092919081815260200182805461046f9061101a565b80156104bc5780601f10610491576101008083540402835291602001916104bc565b820191906000526020600020905b81548152906001019060200180831161049f57829003601f168201915b5050505050908060010180546104d19061101a565b80601f01602080910402602001604051908101604052809291908181526020018280546104fd9061101a565b801561054a5780601f1061051f5761010080835404028352916020019161054a565b820191906000526020600020905b81548152906001019060200180831161052d57829003601f168201915b50505050509080600201805461055f9061101a565b80601f016020809104026020016040519081016040528092919081815260200182805461058b9061101a565b80156105d85780601f106105ad576101008083540402835291602001916105d8565b820191906000526020600020905b8154815290600101906020018083116105bb57829003601f168201915b5050505050908060030154908060040180546105f39061101a565b80601f016020809104026020016040519081016040528092919081815260200182805461061f9061101a565b801561066c5780601f106106415761010080835404028352916020019161066c565b820191906000526020600020905b81548152906001019060200180831161064f57829003601f168201915b5050505050908060050180546106819061101a565b80601f01602080910402602001604051908101604052809291908181526020018280546106ad9061101a565b80156106fa5780601f106106cf576101008083540402835291602001916106fa565b820191906000526020600020905b8154815290600101906020018083116106dd57829003601f168201915b5050505050908060060160009054906101000a900473ffffffffffffffffffffffffffffffffffffffff16905087565b600081610736856109c2565b1015610777576040517f08c379a000000000000000000000000000000000000000000000000000000000815260040161076e90611097565b60405180910390fd5b81600260008673ffffffffffffffffffffffffffffffffffffffff1673ffffffffffffffffffffffffffffffffffffffff16815260200190815260200160002060003373ffffffffffffffffffffffffffffffffffffffff1673ffffffffffffffffffffffffffffffffffffffff168152602001908152602001600020541015610836576040517f08c379a000000000000000000000000000000000000000000000000000000000815260040161082d90611103565b60405180910390fd5b81600160008673ffffffffffffffffffffffffffffffffffffffff1673ffffffffffffffffffffffffffffffffffffffff168152602001908152602001600020546108819190611152565b600160008673ffffffffffffffffffffffffffffffffffffffff1673ffffffffffffffffffffffffffffffffffffffff1681526020019081526020016000208190555081600160008573ffffffffffffffffffffffffffffffffffffffff1673ffffffffffffffffffffffffffffffffffffffff1681526020019081526020016000205461090f9190611186565b600160008573ffffffffffffffffffffffffffffffffffffffff1673ffffffffffffffffffffffffffffffffffffffff168152602001908152602001600020819055508273ffffffffffffffffffffffffffffffffffffffff168473ffffffffffffffffffffffffffffffffffffffff167fddf252ad1be2c89b69c2b068fc378daa952ba7f163c4a11628f55a4df523b3ef846040516109af9190610e6f565b60405180910390a3600190509392505050565b6000600160008373ffffffffffffffffffffffffffffffffffffffff1673ffffffffffffffffffffffffffffffffffffffff168152602001908152602001600020549050919050565b60058054610a189061101a565b80601f0160208091040260200160405190810160405280929190818152602001828054610a449061101a565b8015610a915780601f10610a6657610100808354040283529160200191610a91565b820191906000526020600020905b815481529060010190602001808311610a7457829003601f168201915b505050505081565b600081610aa5336109c2565b1015610ae6576040517f08c379a0000000000000000000000000000000000000000000000000000000008152600401610add90611097565b60405180910390fd5b81600160003373ffffffffffffffffffffffffffffffffffffffff1673ffffffffffffffffffffffffffffffffffffffff16815260200190815260200160002054610b319190611152565b600160003373ffffffffffffffffffffffffffffffffffffffff1673ffffffffffffffffffffffffffffffffffffffff1681526020019081526020016000208190555081600160008573ffffffffffffffffffffffffffffffffffffffff1673ffffffffffffffffffffffffffffffffffffffff16815260200190815260200160002054610bbf9190611186565b600160008573ffffffffffffffffffffffffffffffffffffffff1673ffffffffffffffffffffffffffffffffffffffff168152602001908152602001600020819055508273ffffffffffffffffffffffffffffffffffffffff163373ffffffffffffffffffffffffffffffffffffffff167fddf252ad1be2c89b69c2b068fc378daa952ba7f163c4a11628f55a4df523b3ef84604051610c5f9190610e6f565b60405180910390a36001905092915050565b6002602052816000526040600020602052806000526040600020600091509150505481565b600081519050919050565b600082825260208201905092915050565b60005b83811015610cd0578082015181840152602081019050610cb5565b83811115610cdf576000848401525b50505050565b6000601f19601f8301169050919050565b6000610d0182610c96565b610d0b8185610ca1565b9350610d1b818560208601610cb2565b610d2481610ce5565b840191505092915050565b60006020820190508181036000830152610d498184610cf6565b905092915050565b600080fd5b600073ffffffffffffffffffffffffffffffffffffffff82169050919050565b6000610d8182610d56565b9050919050565b610d9181610d76565b8114610d9c57600080fd5b50565b600081359050610dae81610d88565b92915050565b6000819050919050565b610dc781610db4565b8114610dd257600080fd5b50565b600081359050610de481610dbe565b92915050565b60008060408385031215610e0157610e00610d51565b5b6000610e0f85828601610d9f565b9250506020610e2085828601610dd5565b9150509250929050565b60008115159050919050565b610e3f81610e2a565b82525050565b6000602082019050610e5a6000830184610e36565b92915050565b610e6981610db4565b82525050565b6000602082019050610e846000830184610e60565b92915050565b600060208284031215610ea057610e9f610d51565b5b6000610eae84828501610d9f565b91505092915050565b610ec081610d76565b82525050565b600060e0820190508181036000830152610ee0818a610cf6565b90508181036020830152610ef48189610cf6565b90508181036040830152610f088188610cf6565b9050610f176060830187610e60565b8181036080830152610f298186610cf6565b905081810360a0830152610f3d8185610cf6565b9050610f4c60c0830184610eb7565b98975050505050505050565b600080600060608486031215610f7157610f70610d51565b5b6000610f7f86828701610d9f565b9350506020610f9086828701610d9f565b9250506040610fa186828701610dd5565b9150509250925092565b60008060408385031215610fc257610fc1610d51565b5b6000610fd085828601610d9f565b9250506020610fe185828601610d9f565b9150509250929050565b7f4e487b7100000000000000000000000000000000000000000000000000000000600052602260045260246000fd5b6000600282049050600182168061103257607f821691505b60208210810361104557611044610feb565b5b50919050565b7f42616c616e636520746f6f206c6f770000000000000000000000000000000000600082015250565b6000611081600f83610ca1565b915061108c8261104b565b602082019050919050565b600060208201905081810360008301526110b081611074565b9050919050565b7f416c6c6f77616e636520746f6f206c6f77000000000000000000000000000000600082015250565b60006110ed601183610ca1565b91506110f8826110b7565b602082019050919050565b6000602082019050818103600083015261111c816110e0565b9050919050565b7f4e487b7100000000000000000000000000000000000000000000000000000000600052601160045260246000fd5b600061115d82610db4565b915061116883610db4565b92508282101561117b5761117a611123565b5b828203905092915050565b600061119182610db4565b915061119c83610db4565b9250827fffffffffffffffffffffffffffffffffffffffffffffffffffffffffffffffff038211156111d1576111d0611123565b5b82820190509291505056fea2646970667358221220e9ebd34780dbcdb12dba5ab838c86e3883364ecc2c86dd1710f1b881ea5bf02564736f6c634300080e0033",
  "immutableReferences": {},
  "source": "pragma solidity ^0.8.14;\n\ncontract Andromeda{\n    enum Role{ admin, board_member}\n    // Maintainer must be a REAL Person his public info available\n    // not just a wallet-address :D\n    struct Maintainer{\n        string name;\n        string email;\n        string website; // optional\n        uint mobile; // optional\n        string facebook; // optional\n        string twitter; // optional\n        address m_address;\n    }\n    // Arrays for maintaining the token's state\n    mapping (address => Maintainer) public admins;\n    mapping (address => uint) public balances;\n    mapping (address => mapping(address => uint)) public allowance;\n    // Token Details\n    uint public totalSupply;\n    string public name = \"Andromeda\";\n    string public symbol = \"AND\";\n    uint public decimals;\n\n    // Events to be emitted on actions\n    event Transfer (address indexed from, address indexed to, uint value);\n    event Approve (address indexed owner, address indexed spender, uint value);\n\n    // All tokens goes to the contract itself instead\n    // of trusting the admins with the tokens :p\n    constructor(uint _totalSupply, uint _decimals) {\n        totalSupply = _totalSupply * 10 ** _decimals;\n        balances[address(this)] = totalSupply;\n        admins[msg.sender] = Maintainer(\"Ashraf\", \"xxx\", \"\", 0, \"\", \"\", msg.sender);\n    }\n\n    \n    function balanceOf(address _owner) public view returns(uint) {\n        return balances[_owner];\n    }\n\n\n    // Transfers from sender to another address\n    // 0 amount is accepted\n    function transfer(address _to, uint _value) public returns(bool) {\n        require(balanceOf(msg.sender) >= _value,\"Balance too low\");\n        balances[msg.sender] = balances[msg.sender] - _value;\n        balances[_to] = balances[_to] + _value;\n        emit Transfer(msg.sender, _to, _value);\n        return true;\n    }\n\n    // Allow someone to transfer on behlaf of someone else\n    // 0 amount is accepted\n    function transferFROM(address _from, address _to, uint _value) public returns(bool) {\n    require(balanceOf(_from) >= _value,\"Balance too low\");\n    require(allowance[_from][msg.sender] >= _value,\"Allowance too low\");\n    balances[_from] = balances[_from] - _value;\n    balances[_to] = balances[_to] + _value;\n    emit Transfer(_from, _to, _value);\n    return true;\n    }\n\n    // Let someone transfer on my behalf\n    function approve(address spender, uint amount) public returns(bool) {\n        allowance[msg.sender][spender] = amount;\n        emit Approve(msg.sender, spender, amount);\n        return true; \n    }\n}",
  "sourcePath": "/Users/ashraf.beshtawi/Desktop/Andromeda/contracts/Andromeda.sol",
  "compiler": {
    "name": "solc",
    "version": "0.8.14+commit.80d49f37.Emscripten.clang"
  },
  "schemaVersion": "3.4.7",
  "updatedAt": "2022-07-22T14:46:42.294Z",
  "networkType": "ethereum",
  "devdoc": {
    "kind": "dev",
    "methods": {},
    "version": 1
  },
  "userdoc": {
    "kind": "user",
    "methods": {},
    "version": 1
  }
}