{
  "contractName": "Andromeda",
  "abi": [
    {
      "inputs": [
        {
          "internalType": "uint256",
          "name": "_totalSupply",
          "type": "uint256"
        },
        {
          "internalType": "uint256",
          "name": "_decimals",
          "type": "uint256"
        }
      ],
      "stateMutability": "nonpayable",
      "type": "constructor"
    },
    {
      "anonymous": false,
      "inputs": [
        {
          "indexed": true,
          "internalType": "address",
          "name": "owner",
          "type": "address"
        },
        {
          "indexed": true,
          "internalType": "address",
          "name": "spender",
          "type": "address"
        },
        {
          "indexed": false,
          "internalType": "uint256",
          "name": "value",
          "type": "uint256"
        }
      ],
      "name": "Approve",
      "type": "event"
    },
    {
      "anonymous": false,
      "inputs": [
        {
          "indexed": true,
          "internalType": "address",
          "name": "from",
          "type": "address"
        },
        {
          "indexed": true,
          "internalType": "address",
          "name": "to",
          "type": "address"
        },
        {
          "indexed": false,
          "internalType": "uint256",
          "name": "value",
          "type": "uint256"
        }
      ],
      "name": "Transfer",
      "type": "event"
    },
    {
      "inputs": [
        {
          "internalType": "address",
          "name": "",
          "type": "address"
        },
        {
          "internalType": "address",
          "name": "",
          "type": "address"
        }
      ],
      "name": "allowance",
      "outputs": [
        {
          "internalType": "uint256",
          "name": "",
          "type": "uint256"
        }
      ],
      "stateMutability": "view",
      "type": "function",
      "constant": true
    },
    {
      "inputs": [
        {
          "internalType": "address",
          "name": "",
          "type": "address"
        }
      ],
      "name": "balances",
      "outputs": [
        {
          "internalType": "uint256",
          "name": "",
          "type": "uint256"
        }
      ],
      "stateMutability": "view",
      "type": "function",
      "constant": true
    },
    {
      "inputs": [],
      "name": "decimals",
      "outputs": [
        {
          "internalType": "uint256",
          "name": "",
          "type": "uint256"
        }
      ],
      "stateMutability": "view",
      "type": "function",
      "constant": true
    },
    {
      "inputs": [],
      "name": "name",
      "outputs": [
        {
          "internalType": "string",
          "name": "",
          "type": "string"
        }
      ],
      "stateMutability": "view",
      "type": "function",
      "constant": true
    },
    {
      "inputs": [],
      "name": "symbol",
      "outputs": [
        {
          "internalType": "string",
          "name": "",
          "type": "string"
        }
      ],
      "stateMutability": "view",
      "type": "function",
      "constant": true
    },
    {
      "inputs": [],
      "name": "totalSupply",
      "outputs": [
        {
          "internalType": "uint256",
          "name": "",
          "type": "uint256"
        }
      ],
      "stateMutability": "view",
      "type": "function",
      "constant": true
    },
    {
      "inputs": [
        {
          "internalType": "address",
          "name": "_owner",
          "type": "address"
        }
      ],
      "name": "balanceOf",
      "outputs": [
        {
          "internalType": "uint256",
          "name": "",
          "type": "uint256"
        }
      ],
      "stateMutability": "view",
      "type": "function",
      "constant": true
    },
    {
      "inputs": [
        {
          "internalType": "address",
          "name": "_to",
          "type": "address"
        },
        {
          "internalType": "uint256",
          "name": "_value",
          "type": "uint256"
        }
      ],
      "name": "mint",
      "outputs": [
        {
          "internalType": "bool",
          "name": "",
          "type": "bool"
        }
      ],
      "stateMutability": "nonpayable",
      "type": "function"
    },
    {
      "inputs": [
        {
          "internalType": "address",
          "name": "_newAdmin",
          "type": "address"
        }
      ],
      "name": "addAdmin",
      "outputs": [
        {
          "internalType": "bool",
          "name": "",
          "type": "bool"
        }
      ],
      "stateMutability": "nonpayable",
      "type": "function"
    },
    {
      "inputs": [
        {
          "internalType": "address",
          "name": "_to",
          "type": "address"
        },
        {
          "internalType": "uint256",
          "name": "_value",
          "type": "uint256"
        }
      ],
      "name": "transfer",
      "outputs": [
        {
          "internalType": "bool",
          "name": "",
          "type": "bool"
        }
      ],
      "stateMutability": "nonpayable",
      "type": "function"
    },
    {
      "inputs": [
        {
          "internalType": "address",
          "name": "_from",
          "type": "address"
        },
        {
          "internalType": "address",
          "name": "_to",
          "type": "address"
        },
        {
          "internalType": "uint256",
          "name": "_value",
          "type": "uint256"
        }
      ],
      "name": "transferFROM",
      "outputs": [
        {
          "internalType": "bool",
          "name": "",
          "type": "bool"
        }
      ],
      "stateMutability": "nonpayable",
      "type": "function"
    },
    {
      "inputs": [
        {
          "internalType": "address",
          "name": "spender",
          "type": "address"
        },
        {
          "internalType": "uint256",
          "name": "amount",
          "type": "uint256"
        }
      ],
      "name": "approve",
      "outputs": [
        {
          "internalType": "bool",
          "name": "",
          "type": "bool"
        }
      ],
      "stateMutability": "nonpayable",
      "type": "function"
    }
  ],
  "bytecode": "0x60806040526040518060400160405280600981526020017f416e64726f6d6564610000000000000000000000000000000000000000000000815250600d9080519060200190620000519291906200019a565b506040518060400160405280600381526020017f414e440000000000000000000000000000000000000000000000000000000000815250600e90805190602001906200009f9291906200019a565b50348015620000ad57600080fd5b50604051620017e6380380620017e68339818101604052810190620000d391906200028a565b80600a620000e2919062000454565b82620000ef9190620004a5565b600c81905550600c54600a60003373ffffffffffffffffffffffffffffffffffffffff1673ffffffffffffffffffffffffffffffffffffffff1681526020019081526020016000208190555033600080600a811062000153576200015262000506565b5b0160006101000a81548173ffffffffffffffffffffffffffffffffffffffff021916908373ffffffffffffffffffffffffffffffffffffffff160217905550505062000599565b828054620001a89062000564565b90600052602060002090601f016020900481019282620001cc576000855562000218565b82601f10620001e757805160ff191683800117855562000218565b8280016001018555821562000218579182015b8281111562000217578251825591602001919060010190620001fa565b5b5090506200022791906200022b565b5090565b5b80821115620002465760008160009055506001016200022c565b5090565b600080fd5b6000819050919050565b62000264816200024f565b81146200027057600080fd5b50565b600081519050620002848162000259565b92915050565b60008060408385031215620002a457620002a36200024a565b5b6000620002b48582860162000273565b9250506020620002c78582860162000273565b9150509250929050565b7f4e487b7100000000000000000000000000000000000000000000000000000000600052601160045260246000fd5b60008160011c9050919050565b6000808291508390505b60018511156200035f57808604811115620003375762000336620002d1565b5b6001851615620003475780820291505b8081029050620003578562000300565b945062000317565b94509492505050565b6000826200037a57600190506200044d565b816200038a57600090506200044d565b8160018114620003a35760028114620003ae57620003e4565b60019150506200044d565b60ff841115620003c357620003c2620002d1565b5b8360020a915084821115620003dd57620003dc620002d1565b5b506200044d565b5060208310610133831016604e8410600b84101617156200041e5782820a905083811115620004185762000417620002d1565b5b6200044d565b6200042d84848460016200030d565b92509050818404811115620004475762000446620002d1565b5b81810290505b9392505050565b600062000461826200024f565b91506200046e836200024f565b92506200049d7fffffffffffffffffffffffffffffffffffffffffffffffffffffffffffffffff848462000368565b905092915050565b6000620004b2826200024f565b9150620004bf836200024f565b9250817fffffffffffffffffffffffffffffffffffffffffffffffffffffffffffffffff0483118215151615620004fb57620004fa620002d1565b5b828202905092915050565b7f4e487b7100000000000000000000000000000000000000000000000000000000600052603260045260246000fd5b7f4e487b7100000000000000000000000000000000000000000000000000000000600052602260045260246000fd5b600060028204905060018216806200057d57607f821691505b60208210810362000593576200059262000535565b5b50919050565b61123d80620005a96000396000f3fe608060405234801561001057600080fd5b50600436106100b45760003560e01c80635f5cf6be116100715780635f5cf6be146101a357806370480275146101d357806370a082311461020357806395d89b4114610233578063a9059cbb14610251578063dd62ed3e14610281576100b4565b806306fdde03146100b9578063095ea7b3146100d757806318160ddd1461010757806327e235e314610125578063313ce5671461015557806340c10f1914610173575b600080fd5b6100c16102b1565b6040516100ce9190610d84565b60405180910390f35b6100f160048036038101906100ec9190610e3f565b61033f565b6040516100fe9190610e9a565b60405180910390f35b61010f610431565b60405161011c9190610ec4565b60405180910390f35b61013f600480360381019061013a9190610edf565b610437565b60405161014c9190610ec4565b60405180910390f35b61015d61044f565b60405161016a9190610ec4565b60405180910390f35b61018d60048036038101906101889190610e3f565b610455565b60405161019a9190610e9a565b60405180910390f35b6101bd60048036038101906101b89190610f0c565b6105ff565b6040516101ca9190610e9a565b60405180910390f35b6101ed60048036038101906101e89190610edf565b610897565b6040516101fa9190610e9a565b60405180910390f35b61021d60048036038101906102189190610edf565b610a17565b60405161022a9190610ec4565b60405180910390f35b61023b610a60565b6040516102489190610d84565b60405180910390f35b61026b60048036038101906102669190610e3f565b610aee565b6040516102789190610e9a565b60405180910390f35b61029b60048036038101906102969190610f5f565b610cc6565b6040516102a89190610ec4565b60405180910390f35b600d80546102be90610fce565b80601f01602080910402602001604051908101604052809291908181526020018280546102ea90610fce565b80156103375780601f1061030c57610100808354040283529160200191610337565b820191906000526020600020905b81548152906001019060200180831161031a57829003601f168201915b505050505081565b600081600b60003373ffffffffffffffffffffffffffffffffffffffff1673ffffffffffffffffffffffffffffffffffffffff16815260200190815260200160002060008573ffffffffffffffffffffffffffffffffffffffff1673ffffffffffffffffffffffffffffffffffffffff168152602001908152602001600020819055508273ffffffffffffffffffffffffffffffffffffffff163373ffffffffffffffffffffffffffffffffffffffff167f6e11fb1b7f119e3f2fa29896ef5fdf8b8a2d0d4df6fe90ba8668e7d8b2ffa25e8460405161041f9190610ec4565b60405180910390a36001905092915050565b600c5481565b600a6020528060005260406000206000915090505481565b600f5481565b600080600090505b600a8110156105f3573373ffffffffffffffffffffffffffffffffffffffff16600082600a811061049157610490610fff565b5b0160009054906101000a900473ffffffffffffffffffffffffffffffffffffffff1673ffffffffffffffffffffffffffffffffffffffff16036105e05782600c546104dc919061105d565b600c8190555082600a60008673ffffffffffffffffffffffffffffffffffffffff1673ffffffffffffffffffffffffffffffffffffffff1681526020019081526020016000205461052d919061105d565b600a60008673ffffffffffffffffffffffffffffffffffffffff1673ffffffffffffffffffffffffffffffffffffffff168152602001908152602001600020819055508373ffffffffffffffffffffffffffffffffffffffff16600073ffffffffffffffffffffffffffffffffffffffff167fddf252ad1be2c89b69c2b068fc378daa952ba7f163c4a11628f55a4df523b3ef856040516105ce9190610ec4565b60405180910390a360019150506105f9565b80806105eb906110b3565b91505061045d565b50600090505b92915050565b60008161060b85610a17565b101561064c576040517f08c379a000000000000000000000000000000000000000000000000000000000815260040161064390611147565b60405180910390fd5b81600b60008673ffffffffffffffffffffffffffffffffffffffff1673ffffffffffffffffffffffffffffffffffffffff16815260200190815260200160002060003373ffffffffffffffffffffffffffffffffffffffff1673ffffffffffffffffffffffffffffffffffffffff16815260200190815260200160002054101561070b576040517f08c379a0000000000000000000000000000000000000000000000000000000008152600401610702906111b3565b60405180910390fd5b81600a60008673ffffffffffffffffffffffffffffffffffffffff1673ffffffffffffffffffffffffffffffffffffffff1681526020019081526020016000205461075691906111d3565b600a60008673ffffffffffffffffffffffffffffffffffffffff1673ffffffffffffffffffffffffffffffffffffffff1681526020019081526020016000208190555081600a60008573ffffffffffffffffffffffffffffffffffffffff1673ffffffffffffffffffffffffffffffffffffffff168152602001908152602001600020546107e4919061105d565b600a60008573ffffffffffffffffffffffffffffffffffffffff1673ffffffffffffffffffffffffffffffffffffffff168152602001908152602001600020819055508273ffffffffffffffffffffffffffffffffffffffff168473ffffffffffffffffffffffffffffffffffffffff167fddf252ad1be2c89b69c2b068fc378daa952ba7f163c4a11628f55a4df523b3ef846040516108849190610ec4565b60405180910390a3600190509392505050565b600080600090505b600a811015610a0c573373ffffffffffffffffffffffffffffffffffffffff16600082600a81106108d3576108d2610fff565b5b0160009054906101000a900473ffffffffffffffffffffffffffffffffffffffff1673ffffffffffffffffffffffffffffffffffffffff16036109f95760005b600a8210156109f757600073ffffffffffffffffffffffffffffffffffffffff16600082600a811061094857610947610fff565b5b0160009054906101000a900473ffffffffffffffffffffffffffffffffffffffff1673ffffffffffffffffffffffffffffffffffffffff16036109e45783600082600a811061099a57610999610fff565b5b0160006101000a81548173ffffffffffffffffffffffffffffffffffffffff021916908373ffffffffffffffffffffffffffffffffffffffff160217905550600192505050610a12565b80806109ef906110b3565b915050610913565b505b8080610a04906110b3565b91505061089f565b50600090505b919050565b6000600a60008373ffffffffffffffffffffffffffffffffffffffff1673ffffffffffffffffffffffffffffffffffffffff168152602001908152602001600020549050919050565b600e8054610a6d90610fce565b80601f0160208091040260200160405190810160405280929190818152602001828054610a9990610fce565b8015610ae65780601f10610abb57610100808354040283529160200191610ae6565b820191906000526020600020905b815481529060010190602001808311610ac957829003601f168201915b505050505081565b600081610afa33610a17565b1015610b3b576040517f08c379a0000000000000000000000000000000000000000000000000000000008152600401610b3290611147565b60405180910390fd5b81600a60003373ffffffffffffffffffffffffffffffffffffffff1673ffffffffffffffffffffffffffffffffffffffff16815260200190815260200160002054610b8691906111d3565b600a60003373ffffffffffffffffffffffffffffffffffffffff1673ffffffffffffffffffffffffffffffffffffffff1681526020019081526020016000208190555081600a60008573ffffffffffffffffffffffffffffffffffffffff1673ffffffffffffffffffffffffffffffffffffffff16815260200190815260200160002054610c14919061105d565b600a60008573ffffffffffffffffffffffffffffffffffffffff1673ffffffffffffffffffffffffffffffffffffffff168152602001908152602001600020819055508273ffffffffffffffffffffffffffffffffffffffff163373ffffffffffffffffffffffffffffffffffffffff167fddf252ad1be2c89b69c2b068fc378daa952ba7f163c4a11628f55a4df523b3ef84604051610cb49190610ec4565b60405180910390a36001905092915050565b600b602052816000526040600020602052806000526040600020600091509150505481565b600081519050919050565b600082825260208201905092915050565b60005b83811015610d25578082015181840152602081019050610d0a565b83811115610d34576000848401525b50505050565b6000601f19601f8301169050919050565b6000610d5682610ceb565b610d608185610cf6565b9350610d70818560208601610d07565b610d7981610d3a565b840191505092915050565b60006020820190508181036000830152610d9e8184610d4b565b905092915050565b600080fd5b600073ffffffffffffffffffffffffffffffffffffffff82169050919050565b6000610dd682610dab565b9050919050565b610de681610dcb565b8114610df157600080fd5b50565b600081359050610e0381610ddd565b92915050565b6000819050919050565b610e1c81610e09565b8114610e2757600080fd5b50565b600081359050610e3981610e13565b92915050565b60008060408385031215610e5657610e55610da6565b5b6000610e6485828601610df4565b9250506020610e7585828601610e2a565b9150509250929050565b60008115159050919050565b610e9481610e7f565b82525050565b6000602082019050610eaf6000830184610e8b565b92915050565b610ebe81610e09565b82525050565b6000602082019050610ed96000830184610eb5565b92915050565b600060208284031215610ef557610ef4610da6565b5b6000610f0384828501610df4565b91505092915050565b600080600060608486031215610f2557610f24610da6565b5b6000610f3386828701610df4565b9350506020610f4486828701610df4565b9250506040610f5586828701610e2a565b9150509250925092565b60008060408385031215610f7657610f75610da6565b5b6000610f8485828601610df4565b9250506020610f9585828601610df4565b9150509250929050565b7f4e487b7100000000000000000000000000000000000000000000000000000000600052602260045260246000fd5b60006002820490506001821680610fe657607f821691505b602082108103610ff957610ff8610f9f565b5b50919050565b7f4e487b7100000000000000000000000000000000000000000000000000000000600052603260045260246000fd5b7f4e487b7100000000000000000000000000000000000000000000000000000000600052601160045260246000fd5b600061106882610e09565b915061107383610e09565b9250827fffffffffffffffffffffffffffffffffffffffffffffffffffffffffffffffff038211156110a8576110a761102e565b5b828201905092915050565b60006110be82610e09565b91507fffffffffffffffffffffffffffffffffffffffffffffffffffffffffffffffff82036110f0576110ef61102e565b5b600182019050919050565b7f42616c616e636520746f6f206c6f770000000000000000000000000000000000600082015250565b6000611131600f83610cf6565b915061113c826110fb565b602082019050919050565b6000602082019050818103600083015261116081611124565b9050919050565b7f416c6c6f77616e636520746f6f206c6f77000000000000000000000000000000600082015250565b600061119d601183610cf6565b91506111a882611167565b602082019050919050565b600060208201905081810360008301526111cc81611190565b9050919050565b60006111de82610e09565b91506111e983610e09565b9250828210156111fc576111fb61102e565b5b82820390509291505056fea26469706673582212202409a355712341d653d638de0a705c059629b9130e593dde20209b644a93403e64736f6c634300080e0033",
  "immutableReferences": {},
  "source": "// SPDX-License-Identifier: MIT \npragma solidity ^0.8.14;\n\ncontract Andromeda{\n    enum Role{ admin, board_member}\n    // Maintainer must be a REAL Person his public info available\n    // not just a wallet-address :D\n    struct Maintainer{\n        string name;\n        string email;\n        string website; // optional\n        uint mobile; // optional\n        string facebook; // optional\n        string twitter; // optional\n        address m_address;\n    }\n    // Arrays for maintaining the token's state\n    address[10] admin;\n    mapping (address => uint) public balances;\n    mapping (address => mapping(address => uint)) public allowance;\n    // Token Details\n    uint public totalSupply;\n    string public name = \"Andromeda\";\n    string public symbol = \"AND\";\n    uint public decimals;\n\n    // Events to be emitted on actions\n    event Transfer (address indexed from, address indexed to, uint value);\n    event Approve (address indexed owner, address indexed spender, uint value);\n\n\n    constructor(uint _totalSupply, uint _decimals) {\n        totalSupply = _totalSupply * 10 ** _decimals;\n        balances[msg.sender] = totalSupply;\n        admin[0] = msg.sender;\n    }\n\n    \n    function balanceOf(address _owner) public view returns(uint) {\n        return balances[_owner];\n    }\n\n    // Mint tokens (only-admins)\n    // 0 amount is accepted\n    function mint(address _to, uint _value) public returns(bool) {\n        for (uint i=0; i < admin.length; i++) {\n            if (admin[i] == msg.sender) {\n                totalSupply = totalSupply + _value;\n                balances[_to] = balances[_to] + _value;\n                emit Transfer(address(0), _to, _value);\n\n                return true;\n            }\n        }\n        return false;\n    }\n\n    // add admin (only-admins)\n    // 0 amount is accepted\n    function addAdmin(address _newAdmin) public returns(bool) {\n        for (uint i=0; i < admin.length; i++) {\n            if (admin[i] == msg.sender) {\n                for (uint j = 0; i < admin.length; j++) {\n                    if (admin[j] == address(0)) {\n                        admin[j] = _newAdmin;\n                        return true;\n                    }\n                }\n            }\n        }\n        return false;\n    }\n\n\n    // Transfers from sender to another address\n    // 0 amount is accepted\n    function transfer(address _to, uint _value) public returns(bool) {\n        require(balanceOf(msg.sender) >= _value,\"Balance too low\");\n        balances[msg.sender] = balances[msg.sender] - _value;\n        balances[_to] = balances[_to] + _value;\n        emit Transfer(msg.sender, _to, _value);\n        return true;\n    }\n\n    // Allow someone to transfer on behlaf of someone else\n    // 0 amount is accepted\n    function transferFROM(address _from, address _to, uint _value) public returns(bool) {\n    require(balanceOf(_from) >= _value,\"Balance too low\");\n    require(allowance[_from][msg.sender] >= _value,\"Allowance too low\");\n    balances[_from] = balances[_from] - _value;\n    balances[_to] = balances[_to] + _value;\n    emit Transfer(_from, _to, _value);\n    return true;\n    }\n\n    // Let someone transfer on my behalf\n    function approve(address spender, uint amount) public returns(bool) {\n        allowance[msg.sender][spender] = amount;\n        emit Approve(msg.sender, spender, amount);\n        return true; \n    }\n}",
  "sourcePath": "/Users/ashraf.beshtawi/Desktop/Andromeda/contracts/Andromeda.sol",
  "compiler": {
    "name": "solc",
    "version": "0.8.14+commit.80d49f37.Emscripten.clang"
  },
  "schemaVersion": "3.4.7",
  "updatedAt": "2022-11-20T21:37:24.355Z",
  "networkType": "ethereum",
  "devdoc": {
    "kind": "dev",
    "methods": {},
    "version": 1
  },
  "userdoc": {
    "kind": "user",
    "methods": {},
    "version": 1
  }
}